{
  "contractName": "ENSMigrationSubdomainRegistrar",
  "abi": [
    {
      "inputs": [
        {
          "internalType": "contract ENS",
          "name": "ens",
          "type": "address"
        }
      ],
      "payable": false,
      "stateMutability": "nonpayable",
      "type": "constructor"
    },
    {
      "anonymous": false,
      "inputs": [
        {
          "indexed": true,
          "internalType": "bytes32",
          "name": "label",
          "type": "bytes32"
        }
      ],
      "name": "DomainConfigured",
      "type": "event"
    },
    {
      "anonymous": false,
      "inputs": [
        {
          "indexed": true,
          "internalType": "bytes32",
          "name": "label",
          "type": "bytes32"
        },
        {
          "indexed": false,
          "internalType": "string",
          "name": "name",
          "type": "string"
        }
      ],
      "name": "DomainTransferred",
      "type": "event"
    },
    {
      "anonymous": false,
      "inputs": [
        {
          "indexed": true,
          "internalType": "bytes32",
          "name": "label",
          "type": "bytes32"
        }
      ],
      "name": "DomainUnlisted",
      "type": "event"
    },
    {
      "anonymous": false,
      "inputs": [
        {
          "indexed": true,
          "internalType": "bytes32",
          "name": "label",
          "type": "bytes32"
        },
        {
          "indexed": false,
          "internalType": "string",
          "name": "subdomain",
          "type": "string"
        },
        {
          "indexed": true,
          "internalType": "address",
          "name": "owner",
          "type": "address"
        },
        {
          "indexed": true,
          "internalType": "address",
          "name": "referrer",
          "type": "address"
        },
        {
          "indexed": false,
          "internalType": "uint256",
          "name": "price",
          "type": "uint256"
        }
      ],
      "name": "NewRegistration",
      "type": "event"
    },
    {
      "anonymous": false,
      "inputs": [
        {
          "indexed": true,
          "internalType": "bytes32",
          "name": "label",
          "type": "bytes32"
        },
        {
          "indexed": true,
          "internalType": "address",
          "name": "oldOwner",
          "type": "address"
        },
        {
          "indexed": true,
          "internalType": "address",
          "name": "newOwner",
          "type": "address"
        }
      ],
      "name": "OwnerChanged",
      "type": "event"
    },
    {
      "anonymous": false,
      "inputs": [
        {
          "indexed": true,
          "internalType": "bytes32",
          "name": "label",
          "type": "bytes32"
        },
        {
          "indexed": false,
          "internalType": "string",
          "name": "subdomain",
          "type": "string"
        },
        {
          "indexed": false,
          "internalType": "uint256",
          "name": "amount",
          "type": "uint256"
        },
        {
          "indexed": false,
          "internalType": "uint256",
          "name": "expirationDate",
          "type": "uint256"
        }
      ],
      "name": "RentPaid",
      "type": "event"
    },
    {
      "constant": true,
      "inputs": [],
      "name": "TLD_NODE",
      "outputs": [
        {
          "internalType": "bytes32",
          "name": "",
          "type": "bytes32"
        }
      ],
      "payable": false,
      "stateMutability": "view",
      "type": "function"
    },
    {
      "constant": false,
      "inputs": [
        {
          "internalType": "string",
          "name": "name",
          "type": "string"
        },
        {
          "internalType": "uint256",
          "name": "price",
          "type": "uint256"
        },
        {
          "internalType": "uint256",
          "name": "referralFeePPM",
          "type": "uint256"
        }
      ],
      "name": "configureDomain",
      "outputs": [],
      "payable": false,
      "stateMutability": "nonpayable",
      "type": "function"
    },
    {
      "constant": false,
      "inputs": [
        {
          "internalType": "string",
          "name": "name",
          "type": "string"
        },
        {
          "internalType": "uint256",
          "name": "price",
          "type": "uint256"
        },
        {
          "internalType": "uint256",
          "name": "referralFeePPM",
          "type": "uint256"
        },
        {
          "internalType": "address payable",
          "name": "_owner",
          "type": "address"
        },
        {
          "internalType": "address",
          "name": "_transfer",
          "type": "address"
        }
      ],
      "name": "configureDomainFor",
      "outputs": [],
      "payable": false,
      "stateMutability": "nonpayable",
      "type": "function"
    },
    {
      "constant": true,
      "inputs": [],
      "name": "ens",
      "outputs": [
        {
          "internalType": "contract ENS",
          "name": "",
          "type": "address"
        }
      ],
      "payable": false,
      "stateMutability": "view",
      "type": "function"
    },
    {
      "constant": false,
      "inputs": [
        {
          "internalType": "string",
          "name": "name",
          "type": "string"
        }
      ],
      "name": "migrate",
      "outputs": [],
      "payable": false,
      "stateMutability": "nonpayable",
      "type": "function"
    },
    {
      "constant": true,
      "inputs": [],
      "name": "migration",
      "outputs": [
        {
          "internalType": "address",
          "name": "",
          "type": "address"
        }
      ],
      "payable": false,
      "stateMutability": "view",
      "type": "function"
    },
    {
      "constant": true,
      "inputs": [
        {
          "internalType": "bytes32",
          "name": "label",
          "type": "bytes32"
        }
      ],
      "name": "owner",
      "outputs": [
        {
          "internalType": "address",
          "name": "",
          "type": "address"
        }
      ],
      "payable": false,
      "stateMutability": "view",
      "type": "function"
    },
    {
      "constant": false,
      "inputs": [
        {
          "internalType": "bytes32",
          "name": "label",
          "type": "bytes32"
        },
        {
          "internalType": "string",
          "name": "subdomain",
          "type": "string"
        }
      ],
      "name": "payRent",
      "outputs": [],
      "payable": true,
      "stateMutability": "payable",
      "type": "function"
    },
    {
      "constant": true,
      "inputs": [
        {
          "internalType": "bytes32",
          "name": "label",
          "type": "bytes32"
        },
        {
          "internalType": "string",
          "name": "subdomain",
          "type": "string"
        }
      ],
      "name": "query",
      "outputs": [
        {
          "internalType": "string",
          "name": "domain",
          "type": "string"
        },
        {
          "internalType": "uint256",
          "name": "price",
          "type": "uint256"
        },
        {
          "internalType": "uint256",
          "name": "rent",
          "type": "uint256"
        },
        {
          "internalType": "uint256",
          "name": "referralFeePPM",
          "type": "uint256"
        }
      ],
      "payable": false,
      "stateMutability": "view",
      "type": "function"
    },
    {
      "constant": false,
      "inputs": [
        {
          "internalType": "bytes32",
          "name": "label",
          "type": "bytes32"
        },
        {
          "internalType": "string",
          "name": "subdomain",
          "type": "string"
        },
        {
          "internalType": "address",
          "name": "_subdomainOwner",
          "type": "address"
        },
        {
          "internalType": "address payable",
          "name": "referrer",
          "type": "address"
        },
        {
          "internalType": "address",
          "name": "resolver",
          "type": "address"
        }
      ],
      "name": "register",
      "outputs": [],
      "payable": true,
      "stateMutability": "payable",
      "type": "function"
    },
    {
      "constant": true,
      "inputs": [],
      "name": "registrar",
      "outputs": [
        {
          "internalType": "address",
          "name": "",
          "type": "address"
        }
      ],
      "payable": false,
      "stateMutability": "view",
      "type": "function"
    },
    {
      "constant": true,
      "inputs": [],
      "name": "registrarOwner",
      "outputs": [
        {
          "internalType": "address",
          "name": "",
          "type": "address"
        }
      ],
      "payable": false,
      "stateMutability": "view",
      "type": "function"
    },
    {
      "constant": true,
      "inputs": [
        {
          "internalType": "bytes32",
          "name": "label",
          "type": "bytes32"
        },
        {
          "internalType": "string",
          "name": "subdomain",
          "type": "string"
        }
      ],
      "name": "rentDue",
      "outputs": [
        {
          "internalType": "uint256",
          "name": "timestamp",
          "type": "uint256"
        }
      ],
      "payable": false,
      "stateMutability": "view",
      "type": "function"
    },
    {
      "constant": false,
      "inputs": [
        {
          "internalType": "address",
          "name": "_migration",
          "type": "address"
        }
      ],
      "name": "setMigrationAddress",
      "outputs": [],
      "payable": false,
      "stateMutability": "nonpayable",
      "type": "function"
    },
    {
      "constant": false,
      "inputs": [
        {
          "internalType": "string",
          "name": "name",
          "type": "string"
        },
        {
          "internalType": "address",
          "name": "resolver",
          "type": "address"
        }
      ],
      "name": "setResolver",
      "outputs": [],
      "payable": false,
      "stateMutability": "nonpayable",
      "type": "function"
    },
    {
      "constant": false,
      "inputs": [],
      "name": "stop",
      "outputs": [],
      "payable": false,
      "stateMutability": "nonpayable",
      "type": "function"
    },
    {
      "constant": true,
      "inputs": [],
      "name": "stopped",
      "outputs": [
        {
          "internalType": "bool",
          "name": "",
          "type": "bool"
        }
      ],
      "payable": false,
      "stateMutability": "view",
      "type": "function"
    },
    {
      "constant": true,
      "inputs": [
        {
          "internalType": "bytes4",
          "name": "interfaceID",
          "type": "bytes4"
        }
      ],
      "name": "supportsInterface",
      "outputs": [
        {
          "internalType": "bool",
          "name": "",
          "type": "bool"
        }
      ],
      "payable": false,
      "stateMutability": "pure",
      "type": "function"
    },
    {
      "constant": false,
      "inputs": [
        {
          "internalType": "string",
          "name": "name",
          "type": "string"
        },
        {
          "internalType": "address payable",
          "name": "newOwner",
          "type": "address"
        }
      ],
      "name": "transfer",
      "outputs": [],
      "payable": false,
      "stateMutability": "nonpayable",
      "type": "function"
    },
    {
      "constant": false,
      "inputs": [
        {
          "internalType": "address",
          "name": "newOwner",
          "type": "address"
        }
      ],
      "name": "transferOwnership",
      "outputs": [],
      "payable": false,
      "stateMutability": "nonpayable",
      "type": "function"
    },
    {
      "constant": false,
      "inputs": [
        {
          "internalType": "string",
          "name": "name",
          "type": "string"
        }
      ],
      "name": "unlistDomain",
      "outputs": [],
      "payable": false,
      "stateMutability": "nonpayable",
      "type": "function"
    },
    {
      "constant": false,
      "inputs": [
        {
          "internalType": "bytes32",
          "name": "node",
          "type": "bytes32"
        },
        {
          "internalType": "bytes32",
          "name": "label",
          "type": "bytes32"
        }
      ],
      "name": "migrateSubdomain",
      "outputs": [],
      "payable": false,
      "stateMutability": "nonpayable",
      "type": "function"
    }
  ],
  "bytecode": "0x608060405260008060006101000a81548160ff0219169083151502179055503480156200002b57600080fd5b506040516200308138038062003081833981810160405260208110156200005157600080fd5b8101908080519060200190929190505050808080600360006101000a81548173ffffffffffffffffffffffffffffffffffffffff021916908373ffffffffffffffffffffffffffffffffffffffff160217905550600360009054906101000a900473ffffffffffffffffffffffffffffffffffffffff1673ffffffffffffffffffffffffffffffffffffffff166302571be37f93cdeb708b7545dc668eb9280176169d1c33cfd8ed6f04690a0bcc88a93fc4ae60001b6040518263ffffffff1660e01b81526004018082815260200191505060206040518083038186803b1580156200013c57600080fd5b505afa15801562000151573d6000803e3d6000fd5b505050506040513d60208110156200016857600080fd5b8101908080519060200190929190505050600260006101000a81548173ffffffffffffffffffffffffffffffffffffffff021916908373ffffffffffffffffffffffffffffffffffffffff16021790555033600060016101000a81548173ffffffffffffffffffffffffffffffffffffffff021916908373ffffffffffffffffffffffffffffffffffffffff160217905550505050612e74806200020d6000396000f3fe6080604052600436106101355760003560e01c8063660b7ad5116100ab578063cb01a9bf1161006f578063cb01a9bf146108df578063cf77525514610962578063da1fe7d514610a7e578063e34e788914610b5a578063f2fde38b14610c22578063fbf58b3e14610c7357610135565b8063660b7ad514610631578063733ccaba146106d557806375f12b21146107bd57806396df3540146107ec578063c9c5b5b41461081757610135565b80631cb82d79116100fd5780631cb82d79146102da5780632b20e397146103315780632eef3d65146103885780633f15457f146104a65780634254b155146104fd5780634732a7dc146105e057610135565b806301ffc9a71461013a57806302571be3146101ac57806307da68f51461022757806311fb13351461023e5780631705a3bd14610283575b600080fd5b34801561014657600080fd5b506101926004803603602081101561015d57600080fd5b8101908080357bffffffffffffffffffffffffffffffffffffffffffffffffffffffff19169060200190929190505050610d5b565b604051808215151515815260200191505060405180910390f35b3480156101b857600080fd5b506101e5600480360360208110156101cf57600080fd5b8101908080359060200190929190505050610dbd565b604051808273ffffffffffffffffffffffffffffffffffffffff1673ffffffffffffffffffffffffffffffffffffffff16815260200191505060405180910390f35b34801561023357600080fd5b5061023c610f1f565b005b34801561024a57600080fd5b506102816004803603604081101561026157600080fd5b810190808035906020019092919080359060200190929190505050610fae565b005b34801561028f57600080fd5b50610298611355565b604051808273ffffffffffffffffffffffffffffffffffffffff1673ffffffffffffffffffffffffffffffffffffffff16815260200191505060405180910390f35b3480156102e657600080fd5b506102ef61137b565b604051808273ffffffffffffffffffffffffffffffffffffffff1673ffffffffffffffffffffffffffffffffffffffff16815260200191505060405180910390f35b34801561033d57600080fd5b506103466113a1565b604051808273ffffffffffffffffffffffffffffffffffffffff1673ffffffffffffffffffffffffffffffffffffffff16815260200191505060405180910390f35b34801561039457600080fd5b50610416600480360360408110156103ab57600080fd5b8101908080359060200190929190803590602001906401000000008111156103d257600080fd5b8201836020820111156103e457600080fd5b8035906020019184600183028401116401000000008311171561040657600080fd5b90919293919293905050506113c7565b6040518080602001858152602001848152602001838152602001828103825286818151815260200191508051906020019080838360005b8381101561046857808201518184015260208101905061044d565b50505050905090810190601f1680156104955780820380516001836020036101000a031916815260200191505b509550505050505060405180910390f35b3480156104b257600080fd5b506104bb611660565b604051808273ffffffffffffffffffffffffffffffffffffffff1673ffffffffffffffffffffffffffffffffffffffff16815260200191505060405180910390f35b6105de600480360360a081101561051357600080fd5b81019080803590602001909291908035906020019064010000000081111561053a57600080fd5b82018360208201111561054c57600080fd5b8035906020019184600183028401116401000000008311171561056e57600080fd5b9091929391929390803573ffffffffffffffffffffffffffffffffffffffff169060200190929190803573ffffffffffffffffffffffffffffffffffffffff169060200190929190803573ffffffffffffffffffffffffffffffffffffffff169060200190929190505050611686565b005b3480156105ec57600080fd5b5061062f6004803603602081101561060357600080fd5b81019080803573ffffffffffffffffffffffffffffffffffffffff169060200190929190505050611ba3565b005b34801561063d57600080fd5b506106bf6004803603604081101561065457600080fd5b81019080803590602001909291908035906020019064010000000081111561067b57600080fd5b82018360208201111561068d57600080fd5b803590602001918460018302840111640100000000831117156106af57600080fd5b9091929391929390505050611c59565b6040518082815260200191505060405180910390f35b3480156106e157600080fd5b506107bb600480360360408110156106f857600080fd5b810190808035906020019064010000000081111561071557600080fd5b82018360208201111561072757600080fd5b8035906020019184600183028401116401000000008311171561074957600080fd5b91908080601f016020809104026020016040519081016040528093929190818152602001838380828437600081840152601f19601f820116905080830192505050505050509192919290803573ffffffffffffffffffffffffffffffffffffffff169060200190929190505050611c85565b005b3480156107c957600080fd5b506107d2611df7565b604051808215151515815260200191505060405180910390f35b3480156107f857600080fd5b50610801611e09565b6040518082815260200191505060405180910390f35b34801561082357600080fd5b506108dd6004803603602081101561083a57600080fd5b810190808035906020019064010000000081111561085757600080fd5b82018360208201111561086957600080fd5b8035906020019184600183028401116401000000008311171561088b57600080fd5b91908080601f016020809104026020016040519081016040528093929190818152602001838380828437600081840152601f19601f820116905080830192505050505050509192919290505050611e30565b005b610960600480360360408110156108f557600080fd5b81019080803590602001909291908035906020019064010000000081111561091c57600080fd5b82018360208201111561092e57600080fd5b8035906020019184600183028401116401000000008311171561095057600080fd5b90919293919293905050506122ac565b005b34801561096e57600080fd5b50610a7c600480360360a081101561098557600080fd5b81019080803590602001906401000000008111156109a257600080fd5b8201836020820111156109b457600080fd5b803590602001918460018302840111640100000000831117156109d657600080fd5b91908080601f016020809104026020016040519081016040528093929190818152602001838380828437600081840152601f19601f8201169050808301925050505050505091929192908035906020019092919080359060200190929190803573ffffffffffffffffffffffffffffffffffffffff169060200190929190803573ffffffffffffffffffffffffffffffffffffffff1690602001909291905050506122b1565b005b348015610a8a57600080fd5b50610b5860048036036060811015610aa157600080fd5b8101908080359060200190640100000000811115610abe57600080fd5b820183602082011115610ad057600080fd5b80359060200191846001830284011164010000000083111715610af257600080fd5b91908080601f016020809104026020016040519081016040528093929190818152602001838380828437600081840152601f19601f820116905080830192505050505050509192919290803590602001909291908035906020019092919050505061272c565b005b348015610b6657600080fd5b50610c2060048036036020811015610b7d57600080fd5b8101908080359060200190640100000000811115610b9a57600080fd5b820183602082011115610bac57600080fd5b80359060200191846001830284011164010000000083111715610bce57600080fd5b91908080601f016020809104026020016040519081016040528093929190818152602001838380828437600081840152601f19601f82011690508083019250505050505050919291929050505061273f565b005b348015610c2e57600080fd5b50610c7160048036036020811015610c4557600080fd5b81019080803573ffffffffffffffffffffffffffffffffffffffff169060200190929190505050612819565b005b348015610c7f57600080fd5b50610d5960048036036040811015610c9657600080fd5b8101908080359060200190640100000000811115610cb357600080fd5b820183602082011115610cc557600080fd5b80359060200191846001830284011164010000000083111715610ce757600080fd5b91908080601f016020809104026020016040519081016040528093929190818152602001838380828437600081840152601f19601f820116905080830192505050505050509192919290803573ffffffffffffffffffffffffffffffffffffffff1690602001909291905050506128b7565b005b60006301ffc9a760e01b827bffffffffffffffffffffffffffffffffffffffffffffffffffffffff19161480610db6575063c1b15f5a60e01b827bffffffffffffffffffffffffffffffffffffffffffffffffffffffff1916145b9050919050565b60008073ffffffffffffffffffffffffffffffffffffffff166004600084815260200190815260200160002060010160009054906101000a900473ffffffffffffffffffffffffffffffffffffffff1673ffffffffffffffffffffffffffffffffffffffff1614610e66576004600083815260200190815260200160002060010160009054906101000a900473ffffffffffffffffffffffffffffffffffffffff169050610f1a565b600260009054906101000a900473ffffffffffffffffffffffffffffffffffffffff1673ffffffffffffffffffffffffffffffffffffffff16636352211e8360001c6040518263ffffffff1660e01b81526004018082815260200191505060206040518083038186803b158015610edc57600080fd5b505afa158015610ef0573d6000803e3d6000fd5b505050506040513d6020811015610f0657600080fd5b810190808051906020019092919050505090505b919050565b6000809054906101000a900460ff1615610f3857600080fd5b600060019054906101000a900473ffffffffffffffffffffffffffffffffffffffff1673ffffffffffffffffffffffffffffffffffffffff163373ffffffffffffffffffffffffffffffffffffffff1614610f9257600080fd5b60016000806101000a81548160ff021916908315150217905550565b6000828260405160200180838152602001828152602001925050506040516020818303038152906040528051906020012090506000600360009054906101000a900473ffffffffffffffffffffffffffffffffffffffff1673ffffffffffffffffffffffffffffffffffffffff166302571be3836040518263ffffffff1660e01b81526004018082815260200191505060206040518083038186803b15801561105657600080fd5b505afa15801561106a573d6000803e3d6000fd5b505050506040513d602081101561108057600080fd5b8101908080519060200190929190505050905061109c816129f7565b15806110d357508073ffffffffffffffffffffffffffffffffffffffff163373ffffffffffffffffffffffffffffffffffffffff16145b6110dc57600080fd5b600360009054906101000a900473ffffffffffffffffffffffffffffffffffffffff1673ffffffffffffffffffffffffffffffffffffffff16635ef2c7f0858584600360009054906101000a900473ffffffffffffffffffffffffffffffffffffffff1673ffffffffffffffffffffffffffffffffffffffff16630178b8bf886040518263ffffffff1660e01b81526004018082815260200191505060206040518083038186803b15801561119057600080fd5b505afa1580156111a4573d6000803e3d6000fd5b505050506040513d60208110156111ba57600080fd5b8101908080519060200190929190505050600360009054906101000a900473ffffffffffffffffffffffffffffffffffffffff1673ffffffffffffffffffffffffffffffffffffffff166316a25cbd896040518263ffffffff1660e01b81526004018082815260200191505060206040518083038186803b15801561123e57600080fd5b505afa158015611252573d6000803e3d6000fd5b505050506040513d602081101561126857600080fd5b81019080805190602001909291905050506040518663ffffffff1660e01b8152600401808681526020018581526020018473ffffffffffffffffffffffffffffffffffffffff1673ffffffffffffffffffffffffffffffffffffffff1681526020018373ffffffffffffffffffffffffffffffffffffffff1673ffffffffffffffffffffffffffffffffffffffff1681526020018267ffffffffffffffff1667ffffffffffffffff16815260200195505050505050600060405180830381600087803b15801561133757600080fd5b505af115801561134b573d6000803e3d6000fd5b5050505050505050565b600160009054906101000a900473ffffffffffffffffffffffffffffffffffffffff1681565b600060019054906101000a900473ffffffffffffffffffffffffffffffffffffffff1681565b600260009054906101000a900473ffffffffffffffffffffffffffffffffffffffff1681565b60606000806000807f93cdeb708b7545dc668eb9280176169d1c33cfd8ed6f04690a0bcc88a93fc4ae60001b886040516020018083815260200182815260200192505050604051602081830303815290604052805190602001209050600081888860405180838380828437808301925050509250505060405180910390206040516020018083815260200182815260200192505050604051602081830303815290604052805190602001209050600073ffffffffffffffffffffffffffffffffffffffff16600360009054906101000a900473ffffffffffffffffffffffffffffffffffffffff1673ffffffffffffffffffffffffffffffffffffffff166302571be3836040518263ffffffff1660e01b81526004018082815260200191505060206040518083038186803b1580156114ff57600080fd5b505afa158015611513573d6000803e3d6000fd5b505050506040513d602081101561152957600080fd5b810190808051906020019092919050505073ffffffffffffffffffffffffffffffffffffffff16146115855760008060006040518060200160405280600081525092919082925081915080905095509550955095505050611657565b6000600460008b8152602001908152602001600020905080600001816002015460008360030154838054600181600116156101000203166002900480601f0160208091040260200160405190810160405280929190818152602001828054600181600116156101000203166002900480156116415780601f1061161657610100808354040283529160200191611641565b820191906000526020600020905b81548152906001019060200180831161162457829003601f168201915b5050505050935081915096509650965096505050505b93509350935093565b600360009054906101000a900473ffffffffffffffffffffffffffffffffffffffff1681565b6000809054906101000a900460ff161561169f57600080fd5b600083905060007f93cdeb708b7545dc668eb9280176169d1c33cfd8ed6f04690a0bcc88a93fc4ae60001b8860405160200180838152602001828152602001925050506040516020818303038152906040528051906020012090506000878760405180838380828437808301925050509250505060405180910390209050600073ffffffffffffffffffffffffffffffffffffffff16600360009054906101000a900473ffffffffffffffffffffffffffffffffffffffff1673ffffffffffffffffffffffffffffffffffffffff166302571be384846040516020018083815260200182815260200192505050604051602081830303815290604052805190602001206040518263ffffffff1660e01b81526004018082815260200191505060206040518083038186803b1580156117d657600080fd5b505afa1580156117ea573d6000803e3d6000fd5b505050506040513d602081101561180057600080fd5b810190808051906020019092919050505073ffffffffffffffffffffffffffffffffffffffff161461183157600080fd5b6000600460008b81526020019081526020016000209050898160000160405180828054600181600116156101000203166002900480156118a85780601f106118865761010080835404028352918201916118a8565b820191906000526020600020905b815481529060010190602001808311611894575b50509150506040518091039020146118bf57600080fd5b80600201543410156118d057600080fd5b806002015434111561192a573373ffffffffffffffffffffffffffffffffffffffff166108fc826002015434039081150290604051600060405180830381858888f19350505050158015611928573d6000803e3d6000fd5b505b600081600201549050600082600301541180156119745750600073ffffffffffffffffffffffffffffffffffffffff168773ffffffffffffffffffffffffffffffffffffffff1614155b80156119d057508160010160009054906101000a900473ffffffffffffffffffffffffffffffffffffffff1673ffffffffffffffffffffffffffffffffffffffff168773ffffffffffffffffffffffffffffffffffffffff1614155b15611a3e576000620f42408360030154846002015402816119ed57fe5b0490508773ffffffffffffffffffffffffffffffffffffffff166108fc829081150290604051600060405180830381858888f19350505050158015611a36573d6000803e3d6000fd5b508082039150505b6000811115611ab3578160010160009054906101000a900473ffffffffffffffffffffffffffffffffffffffff1673ffffffffffffffffffffffffffffffffffffffff166108fc829081150290604051600060405180830381858888f19350505050158015611ab1573d6000803e3d6000fd5b505b600073ffffffffffffffffffffffffffffffffffffffff168573ffffffffffffffffffffffffffffffffffffffff161415611aec573394505b611af884848789612a0a565b8673ffffffffffffffffffffffffffffffffffffffff168573ffffffffffffffffffffffffffffffffffffffff168c7ffa38f9920801763ca6e4ee19135fb26a4fa11c0a34f7117455064991a1a3e6588d8d876002015460405180806020018381526020018281038252858582818152602001925080828437600081840152601f19601f82011690508083019250505094505050505060405180910390a45050505050505050505050565b600060019054906101000a900473ffffffffffffffffffffffffffffffffffffffff1673ffffffffffffffffffffffffffffffffffffffff163373ffffffffffffffffffffffffffffffffffffffff1614611bfd57600080fd5b6000809054906101000a900460ff16611c1557600080fd5b80600160006101000a81548173ffffffffffffffffffffffffffffffffffffffff021916908373ffffffffffffffffffffffffffffffffffffffff16021790555050565b60007fffffffffffffffffffffffffffffffffffffffffffffffffffffffffffffffff90509392505050565b81805190602001203373ffffffffffffffffffffffffffffffffffffffff16611cad82610dbd565b73ffffffffffffffffffffffffffffffffffffffff1614611ccd57600080fd5b60008380519060200120905060007f93cdeb708b7545dc668eb9280176169d1c33cfd8ed6f04690a0bcc88a93fc4ae60001b826040516020018083815260200182815260200192505050604051602081830303815290604052805190602001209050600360009054906101000a900473ffffffffffffffffffffffffffffffffffffffff1673ffffffffffffffffffffffffffffffffffffffff16631896f70a82866040518363ffffffff1660e01b8152600401808381526020018273ffffffffffffffffffffffffffffffffffffffff1673ffffffffffffffffffffffffffffffffffffffff16815260200192505050600060405180830381600087803b158015611dd857600080fd5b505af1158015611dec573d6000803e3d6000fd5b505050505050505050565b6000809054906101000a900460ff1681565b7f93cdeb708b7545dc668eb9280176169d1c33cfd8ed6f04690a0bcc88a93fc4ae60001b81565b80805190602001203373ffffffffffffffffffffffffffffffffffffffff16611e5882610dbd565b73ffffffffffffffffffffffffffffffffffffffff1614611e7857600080fd5b6000809054906101000a900460ff16611e9057600080fd5b600073ffffffffffffffffffffffffffffffffffffffff16600160009054906101000a900473ffffffffffffffffffffffffffffffffffffffff1673ffffffffffffffffffffffffffffffffffffffff161415611eec57600080fd5b6000828051906020012090506000600460008381526020019081526020016000209050600260009054906101000a900473ffffffffffffffffffffffffffffffffffffffff1673ffffffffffffffffffffffffffffffffffffffff1663095ea7b3600160009054906101000a900473ffffffffffffffffffffffffffffffffffffffff168460001c6040518363ffffffff1660e01b8152600401808373ffffffffffffffffffffffffffffffffffffffff1673ffffffffffffffffffffffffffffffffffffffff16815260200182815260200192505050600060405180830381600087803b158015611fdd57600080fd5b505af1158015611ff1573d6000803e3d6000fd5b50505050600160009054906101000a900473ffffffffffffffffffffffffffffffffffffffff1673ffffffffffffffffffffffffffffffffffffffff1663cf77525582600001836002015484600301548560010160009054906101000a900473ffffffffffffffffffffffffffffffffffffffff1660006040518663ffffffff1660e01b815260040180806020018681526020018581526020018473ffffffffffffffffffffffffffffffffffffffff1673ffffffffffffffffffffffffffffffffffffffff1681526020018373ffffffffffffffffffffffffffffffffffffffff1673ffffffffffffffffffffffffffffffffffffffff1681526020018281038252878181546001816001161561010002031660029004815260200191508054600181600116156101000203166002900480156121705780601f1061214557610100808354040283529160200191612170565b820191906000526020600020905b81548152906001019060200180831161215357829003601f168201915b50509650505050505050600060405180830381600087803b15801561219457600080fd5b505af11580156121a8573d6000803e3d6000fd5b5050505060046000838152602001908152602001600020600080820160006121d09190612d52565b6001820160006101000a81549073ffffffffffffffffffffffffffffffffffffffff0219169055600282016000905560038201600090555050817f8c0dd32279c25300d82425bebe31a5c703918d83d2bb57a1155dfa6cbba61cf8856040518080602001828103825283818151815260200191508051906020019080838360005b8381101561226c578082015181840152602081019050612251565b50505050905090810190601f1680156122995780820380516001836020036101000a031916815260200191505b509250505060405180910390a250505050565b600080fd5b84805190602001203373ffffffffffffffffffffffffffffffffffffffff166122d982610dbd565b73ffffffffffffffffffffffffffffffffffffffff16146122f957600080fd5b60008680519060200120905060006004600083815260200190815260200160002090503073ffffffffffffffffffffffffffffffffffffffff16600260009054906101000a900473ffffffffffffffffffffffffffffffffffffffff1673ffffffffffffffffffffffffffffffffffffffff16636352211e8460001c6040518263ffffffff1660e01b81526004018082815260200191505060206040518083038186803b1580156123a957600080fd5b505afa1580156123bd573d6000803e3d6000fd5b505050506040513d60208110156123d357600080fd5b810190808051906020019092919050505073ffffffffffffffffffffffffffffffffffffffff16146125bc57600260009054906101000a900473ffffffffffffffffffffffffffffffffffffffff1673ffffffffffffffffffffffffffffffffffffffff166323b872dd33308560001c6040518463ffffffff1660e01b8152600401808473ffffffffffffffffffffffffffffffffffffffff1673ffffffffffffffffffffffffffffffffffffffff1681526020018373ffffffffffffffffffffffffffffffffffffffff1673ffffffffffffffffffffffffffffffffffffffff1681526020018281526020019350505050600060405180830381600087803b1580156124df57600080fd5b505af11580156124f3573d6000803e3d6000fd5b50505050600260009054906101000a900473ffffffffffffffffffffffffffffffffffffffff1673ffffffffffffffffffffffffffffffffffffffff166328ed4f6c8360001c306040518363ffffffff1660e01b8152600401808381526020018273ffffffffffffffffffffffffffffffffffffffff1673ffffffffffffffffffffffffffffffffffffffff16815260200192505050600060405180830381600087803b1580156125a357600080fd5b505af11580156125b7573d6000803e3d6000fd5b505050505b8473ffffffffffffffffffffffffffffffffffffffff168160010160009054906101000a900473ffffffffffffffffffffffffffffffffffffffff1673ffffffffffffffffffffffffffffffffffffffff161461265757848160010160006101000a81548173ffffffffffffffffffffffffffffffffffffffff021916908373ffffffffffffffffffffffffffffffffffffffff1602179055505b818160000160405180828054600181600116156101000203166002900480156126b75780601f106126955761010080835404028352918201916126b7565b820191906000526020600020905b8154815290600101906020018083116126a3575b50509150506040518091039020146126e357878160000190805190602001906126e1929190612d9a565b505b868160020181905550858160030181905550817f1427993bb6b6c16d8953c450c37078c8f41196e2e2db1619cda06620143e2d9160405160405180910390a25050505050505050565b61273a8383833360006122b1565b505050565b80805190602001203373ffffffffffffffffffffffffffffffffffffffff1661276782610dbd565b73ffffffffffffffffffffffffffffffffffffffff161461278757600080fd5b6000828051906020012090506000600460008381526020019081526020016000209050817f77f7b610de5055c8f704e6a3b12874468f5785f3a7d1007b67a8a4b4c7ed88fc60405160405180910390a2604051806020016040528060008152508160000190805190602001906127fe929190612d9a565b50600081600201819055506000816003018190555050505050565b600060019054906101000a900473ffffffffffffffffffffffffffffffffffffffff1673ffffffffffffffffffffffffffffffffffffffff163373ffffffffffffffffffffffffffffffffffffffff161461287357600080fd5b80600060016101000a81548173ffffffffffffffffffffffffffffffffffffffff021916908373ffffffffffffffffffffffffffffffffffffffff16021790555050565b81805190602001203373ffffffffffffffffffffffffffffffffffffffff166128df82610dbd565b73ffffffffffffffffffffffffffffffffffffffff16146128ff57600080fd5b6000838051906020012090508273ffffffffffffffffffffffffffffffffffffffff166004600083815260200190815260200160002060010160009054906101000a900473ffffffffffffffffffffffffffffffffffffffff1673ffffffffffffffffffffffffffffffffffffffff16827f06e9c07310f63759634ddbb7257dbb19ca404f90bd6bdef1d3386fab033cebce60405160405180910390a4826004600083815260200190815260200160002060010160006101000a81548173ffffffffffffffffffffffffffffffffffffffff021916908373ffffffffffffffffffffffffffffffffffffffff16021790555050505050565b600080823b905060008111915050919050565b600360009054906101000a900473ffffffffffffffffffffffffffffffffffffffff1673ffffffffffffffffffffffffffffffffffffffff166306ab59238585306040518463ffffffff1660e01b8152600401808481526020018381526020018273ffffffffffffffffffffffffffffffffffffffff1673ffffffffffffffffffffffffffffffffffffffff1681526020019350505050602060405180830381600087803b158015612abb57600080fd5b505af1158015612acf573d6000803e3d6000fd5b505050506040513d6020811015612ae557600080fd5b810190808051906020019092919050505050600084846040516020018083815260200182815260200192505050604051602081830303815290604052805190602001209050600360009054906101000a900473ffffffffffffffffffffffffffffffffffffffff1673ffffffffffffffffffffffffffffffffffffffff16631896f70a82846040518363ffffffff1660e01b8152600401808381526020018273ffffffffffffffffffffffffffffffffffffffff1673ffffffffffffffffffffffffffffffffffffffff16815260200192505050600060405180830381600087803b158015612bd357600080fd5b505af1158015612be7573d6000803e3d6000fd5b505050508173ffffffffffffffffffffffffffffffffffffffff1663d5fa2b0082856040518363ffffffff1660e01b8152600401808381526020018273ffffffffffffffffffffffffffffffffffffffff1673ffffffffffffffffffffffffffffffffffffffff16815260200192505050600060405180830381600087803b158015612c7257600080fd5b505af1158015612c86573d6000803e3d6000fd5b50505050600360009054906101000a900473ffffffffffffffffffffffffffffffffffffffff1673ffffffffffffffffffffffffffffffffffffffff16635b0fc9c382856040518363ffffffff1660e01b8152600401808381526020018273ffffffffffffffffffffffffffffffffffffffff1673ffffffffffffffffffffffffffffffffffffffff16815260200192505050600060405180830381600087803b158015612d3357600080fd5b505af1158015612d47573d6000803e3d6000fd5b505050505050505050565b50805460018160011615610100020316600290046000825580601f10612d785750612d97565b601f016020900490600052602060002090810190612d969190612e1a565b5b50565b828054600181600116156101000203166002900490600052602060002090601f016020900481019282601f10612ddb57805160ff1916838001178555612e09565b82800160010185558215612e09579182015b82811115612e08578251825591602001919060010190612ded565b5b509050612e169190612e1a565b5090565b612e3c91905b80821115612e38576000816000905550600101612e20565b5090565b9056fea265627a7a723158204331c20faa697e922d872bbb69858559ed9571ac01c9ab5ec2e98c6993f1b2d964736f6c63430005100032",
  "source": "pragma solidity ^0.5.0;\n\nimport \"@ensdomains/ethregistrar/contracts/BaseRegistrar.sol\";\nimport \"./EthRegistrarSubdomainRegistrar.sol\";\n\n/**\n * @dev Implements an ENS registrar that sells subdomains on behalf of their owners.\n *\n * Users may register a subdomain by calling `register` with the name of the domain\n * they wish to register under, and the label hash of the subdomain they want to\n * register. They must also specify the new owner of the domain, and the referrer,\n * who is paid an optional finder's fee. The registrar then configures a simple\n * default resolver, which resolves `addr` lookups to the new owner, and sets\n * the `owner` account as the owner of the subdomain in ENS.\n *\n * New domains may be added by calling `configureDomain`, then transferring\n * ownership in the ENS registry to this contract. Ownership in the contract\n * may be transferred using `transfer`, and a domain may be unlisted for sale\n * using `unlistDomain`. There is (deliberately) no way to recover ownership\n * in ENS once the name is transferred to this registrar.\n *\n * Critically, this contract does not check one key property of a listed domain:\n *\n * - Is the name UTS46 normalised?\n *\n * User applications MUST check these two elements for each domain before\n * offering them to users for registration.\n *\n * Applications should additionally check that the domains they are offering to\n * register are controlled by this registrar, since calls to `register` will\n * fail if this is not the case.\n */\ncontract ENSMigrationSubdomainRegistrar is EthRegistrarSubdomainRegistrar {\n\n    constructor(ENS ens) EthRegistrarSubdomainRegistrar(ens) public { }\n\n    function migrateSubdomain(bytes32 node, bytes32 label) external {\n        bytes32 subnode = keccak256(abi.encodePacked(node, label));\n        address previous = ens.owner(subnode);\n\n        // only allow a contract to run their own migration\n        require(!isContract(previous) || msg.sender == previous);\n\n        ens.setSubnodeRecord(node, label, previous, ens.resolver(subnode), ens.ttl(subnode));\n    }\n\n    function isContract(address addr) private returns (bool) {\n        uint size;\n        assembly { size := extcodesize(addr) }\n        return size > 0;\n    }\n}\n",
  "sourcePath": "/home/user/Dropbox/projects/subdomain-registrar/contracts/ENSMigrationSubdomainRegistrar.sol",
  "compiler": {
    "name": "solc",
    "version": "0.5.16+commit.9c3226ce.Emscripten.clang"
  },
  "schemaVersion": "3.0.22",
  "updatedAt": "2020-02-11T22:30:19.735Z",
  "devdoc": {
    "details": "Implements an ENS registrar that sells subdomains on behalf of their owners. * Users may register a subdomain by calling `register` with the name of the domain they wish to register under, and the label hash of the subdomain they want to register. They must also specify the new owner of the domain, and the referrer, who is paid an optional finder's fee. The registrar then configures a simple default resolver, which resolves `addr` lookups to the new owner, and sets the `owner` account as the owner of the subdomain in ENS. * New domains may be added by calling `configureDomain`, then transferring ownership in the ENS registry to this contract. Ownership in the contract may be transferred using `transfer`, and a domain may be unlisted for sale using `unlistDomain`. There is (deliberately) no way to recover ownership in ENS once the name is transferred to this registrar. * Critically, this contract does not check one key property of a listed domain: * - Is the name UTS46 normalised? * User applications MUST check these two elements for each domain before offering them to users for registration. * Applications should additionally check that the domains they are offering to register are controlled by this registrar, since calls to `register` will fail if this is not the case.",
    "methods": {
      "configureDomain(string,uint256,uint256)": {
        "details": "Configures a domain for sale.",
        "params": {
          "name": "The name to configure.",
          "price": "The price in wei to charge for subdomain registrations",
          "referralFeePPM": "The referral fee to offer, in parts per million"
        }
      },
      "configureDomainFor(string,uint256,uint256,address,address)": {
        "details": "Configures a domain, optionally transferring it to a new owner.",
        "params": {
          "_owner": "The address to assign ownership of this domain to.",
          "_transfer": "The address to set as the transfer address for the name       when the permanent registrar is replaced. Can only be set to a non-zero       value once.",
          "name": "The name to configure.",
          "price": "The price in wei to charge for subdomain registrations.",
          "referralFeePPM": "The referral fee to offer, in parts per million."
        }
      },
      "migrate(string)": {
        "details": "Migrates the domain to a new registrar.",
        "params": {
          "name": "The name of the domain to migrate."
        }
      },
      "owner(bytes32)": {
        "details": "owner returns the address of the account that controls a domain.     Initially this is a null address. If the name has been     transferred to this contract, then the internal mapping is consulted     to determine who controls it. If the owner is not set,     the owner of the domain in the Registrar is returned.",
        "params": {
          "label": "The label hash of the deed to check."
        },
        "return": "The address owning the deed."
      },
      "query(bytes32,string)": {
        "details": "Returns information about a subdomain.",
        "params": {
          "label": "The label hash for the domain.",
          "subdomain": "The label for the subdomain."
        },
        "return": "domain The name of the domain, or an empty string if the subdomain               is unavailable.price The price to register a subdomain, in wei.rent The rent to retain a subdomain, in wei per second.referralFeePPM The referral fee for the dapp, in ppm."
      },
      "register(bytes32,string,address,address,address)": {
        "details": "Registers a subdomain.",
        "params": {
          "_subdomainOwner": "The account that should own the newly configured subdomain.",
          "label": "The label hash of the domain to register a subdomain of.",
          "referrer": "The address of the account to receive the referral fee.",
          "subdomain": "The desired subdomain label."
        }
      },
      "setMigrationAddress(address)": {
        "details": "Sets the address where domains are migrated to.",
        "params": {
          "_migration": "Address of the new registrar."
        }
      },
      "setResolver(string,address)": {
        "details": "Sets the resolver record for a name in ENS.",
        "params": {
          "name": "The name to set the resolver for.",
          "resolver": "The address of the resolver"
        }
      },
      "stop()": {
        "details": "Stops the registrar, disabling configuring of new domains."
      },
      "transfer(string,address)": {
        "details": "Transfers internal control of a name to a new account. Does not update     ENS.",
        "params": {
          "name": "The name to transfer.",
          "newOwner": "The address of the new owner."
        }
      },
      "unlistDomain(string)": {
        "details": "Unlists a domain May only be called by the owner.",
        "params": {
          "name": "The name of the domain to unlist."
        }
      }
    }
  },
  "userdoc": {
    "methods": {}
  }
}