{
  "contractName": "OldBaseRegistrarImplementation",
  "abi": [
    {
      "inputs": [
        {
          "internalType": "contract ENS",
          "name": "_ens",
          "type": "address"
        },
        {
          "internalType": "contract HashRegistrar",
          "name": "_previousRegistrar",
          "type": "address"
        },
        {
          "internalType": "bytes32",
          "name": "_baseNode",
          "type": "bytes32"
        },
        {
          "internalType": "uint256",
          "name": "_transferPeriodEnds",
          "type": "uint256"
        }
      ],
      "payable": false,
      "stateMutability": "nonpayable",
      "type": "constructor"
    },
    {
      "anonymous": false,
      "inputs": [
        {
          "indexed": true,
          "internalType": "address",
          "name": "owner",
          "type": "address"
        },
        {
          "indexed": true,
          "internalType": "address",
          "name": "approved",
          "type": "address"
        },
        {
          "indexed": true,
          "internalType": "uint256",
          "name": "tokenId",
          "type": "uint256"
        }
      ],
      "name": "Approval",
      "type": "event"
    },
    {
      "anonymous": false,
      "inputs": [
        {
          "indexed": true,
          "internalType": "address",
          "name": "owner",
          "type": "address"
        },
        {
          "indexed": true,
          "internalType": "address",
          "name": "operator",
          "type": "address"
        },
        {
          "indexed": false,
          "internalType": "bool",
          "name": "approved",
          "type": "bool"
        }
      ],
      "name": "ApprovalForAll",
      "type": "event"
    },
    {
      "anonymous": false,
      "inputs": [
        {
          "indexed": true,
          "internalType": "address",
          "name": "controller",
          "type": "address"
        }
      ],
      "name": "ControllerAdded",
      "type": "event"
    },
    {
      "anonymous": false,
      "inputs": [
        {
          "indexed": true,
          "internalType": "address",
          "name": "controller",
          "type": "address"
        }
      ],
      "name": "ControllerRemoved",
      "type": "event"
    },
    {
      "anonymous": false,
      "inputs": [
        {
          "indexed": true,
          "internalType": "uint256",
          "name": "id",
          "type": "uint256"
        },
        {
          "indexed": true,
          "internalType": "address",
          "name": "owner",
          "type": "address"
        },
        {
          "indexed": false,
          "internalType": "uint256",
          "name": "expires",
          "type": "uint256"
        }
      ],
      "name": "NameMigrated",
      "type": "event"
    },
    {
      "anonymous": false,
      "inputs": [
        {
          "indexed": true,
          "internalType": "uint256",
          "name": "id",
          "type": "uint256"
        },
        {
          "indexed": true,
          "internalType": "address",
          "name": "owner",
          "type": "address"
        },
        {
          "indexed": false,
          "internalType": "uint256",
          "name": "expires",
          "type": "uint256"
        }
      ],
      "name": "NameRegistered",
      "type": "event"
    },
    {
      "anonymous": false,
      "inputs": [
        {
          "indexed": true,
          "internalType": "uint256",
          "name": "id",
          "type": "uint256"
        },
        {
          "indexed": false,
          "internalType": "uint256",
          "name": "expires",
          "type": "uint256"
        }
      ],
      "name": "NameRenewed",
      "type": "event"
    },
    {
      "anonymous": false,
      "inputs": [
        {
          "indexed": true,
          "internalType": "address",
          "name": "previousOwner",
          "type": "address"
        },
        {
          "indexed": true,
          "internalType": "address",
          "name": "newOwner",
          "type": "address"
        }
      ],
      "name": "OwnershipTransferred",
      "type": "event"
    },
    {
      "anonymous": false,
      "inputs": [
        {
          "indexed": true,
          "internalType": "address",
          "name": "from",
          "type": "address"
        },
        {
          "indexed": true,
          "internalType": "address",
          "name": "to",
          "type": "address"
        },
        {
          "indexed": true,
          "internalType": "uint256",
          "name": "tokenId",
          "type": "uint256"
        }
      ],
      "name": "Transfer",
      "type": "event"
    },
    {
      "constant": true,
      "inputs": [],
      "name": "GRACE_PERIOD",
      "outputs": [
        {
          "internalType": "uint256",
          "name": "",
          "type": "uint256"
        }
      ],
      "payable": false,
      "stateMutability": "view",
      "type": "function"
    },
    {
      "constant": true,
      "inputs": [],
      "name": "MIGRATION_LOCK_PERIOD",
      "outputs": [
        {
          "internalType": "uint256",
          "name": "",
          "type": "uint256"
        }
      ],
      "payable": false,
      "stateMutability": "view",
      "type": "function"
    },
    {
      "constant": false,
      "inputs": [
        {
          "internalType": "address",
          "name": "to",
          "type": "address"
        },
        {
          "internalType": "uint256",
          "name": "tokenId",
          "type": "uint256"
        }
      ],
      "name": "approve",
      "outputs": [],
      "payable": false,
      "stateMutability": "nonpayable",
      "type": "function"
    },
    {
      "constant": true,
      "inputs": [
        {
          "internalType": "address",
          "name": "owner",
          "type": "address"
        }
      ],
      "name": "balanceOf",
      "outputs": [
        {
          "internalType": "uint256",
          "name": "",
          "type": "uint256"
        }
      ],
      "payable": false,
      "stateMutability": "view",
      "type": "function"
    },
    {
      "constant": true,
      "inputs": [],
      "name": "baseNode",
      "outputs": [
        {
          "internalType": "bytes32",
          "name": "",
          "type": "bytes32"
        }
      ],
      "payable": false,
      "stateMutability": "view",
      "type": "function"
    },
    {
      "constant": true,
      "inputs": [
        {
          "internalType": "address",
          "name": "",
          "type": "address"
        }
      ],
      "name": "controllers",
      "outputs": [
        {
          "internalType": "bool",
          "name": "",
          "type": "bool"
        }
      ],
      "payable": false,
      "stateMutability": "view",
      "type": "function"
    },
    {
      "constant": true,
      "inputs": [],
      "name": "ens",
      "outputs": [
        {
          "internalType": "contract ENS",
          "name": "",
          "type": "address"
        }
      ],
      "payable": false,
      "stateMutability": "view",
      "type": "function"
    },
    {
      "constant": true,
      "inputs": [
        {
          "internalType": "uint256",
          "name": "tokenId",
          "type": "uint256"
        }
      ],
      "name": "getApproved",
      "outputs": [
        {
          "internalType": "address",
          "name": "",
          "type": "address"
        }
      ],
      "payable": false,
      "stateMutability": "view",
      "type": "function"
    },
    {
      "constant": true,
      "inputs": [
        {
          "internalType": "address",
          "name": "owner",
          "type": "address"
        },
        {
          "internalType": "address",
          "name": "operator",
          "type": "address"
        }
      ],
      "name": "isApprovedForAll",
      "outputs": [
        {
          "internalType": "bool",
          "name": "",
          "type": "bool"
        }
      ],
      "payable": false,
      "stateMutability": "view",
      "type": "function"
    },
    {
      "constant": true,
      "inputs": [],
      "name": "isOwner",
      "outputs": [
        {
          "internalType": "bool",
          "name": "",
          "type": "bool"
        }
      ],
      "payable": false,
      "stateMutability": "view",
      "type": "function"
    },
    {
      "constant": true,
      "inputs": [],
      "name": "owner",
      "outputs": [
        {
          "internalType": "address",
          "name": "",
          "type": "address"
        }
      ],
      "payable": false,
      "stateMutability": "view",
      "type": "function"
    },
    {
      "constant": true,
      "inputs": [],
      "name": "previousRegistrar",
      "outputs": [
        {
          "internalType": "contract Registrar",
          "name": "",
          "type": "address"
        }
      ],
      "payable": false,
      "stateMutability": "view",
      "type": "function"
    },
    {
      "constant": false,
      "inputs": [],
      "name": "renounceOwnership",
      "outputs": [],
      "payable": false,
      "stateMutability": "nonpayable",
      "type": "function"
    },
    {
      "constant": false,
      "inputs": [
        {
          "internalType": "address",
          "name": "from",
          "type": "address"
        },
        {
          "internalType": "address",
          "name": "to",
          "type": "address"
        },
        {
          "internalType": "uint256",
          "name": "tokenId",
          "type": "uint256"
        }
      ],
      "name": "safeTransferFrom",
      "outputs": [],
      "payable": false,
      "stateMutability": "nonpayable",
      "type": "function"
    },
    {
      "constant": false,
      "inputs": [
        {
          "internalType": "address",
          "name": "from",
          "type": "address"
        },
        {
          "internalType": "address",
          "name": "to",
          "type": "address"
        },
        {
          "internalType": "uint256",
          "name": "tokenId",
          "type": "uint256"
        },
        {
          "internalType": "bytes",
          "name": "_data",
          "type": "bytes"
        }
      ],
      "name": "safeTransferFrom",
      "outputs": [],
      "payable": false,
      "stateMutability": "nonpayable",
      "type": "function"
    },
    {
      "constant": false,
      "inputs": [
        {
          "internalType": "address",
          "name": "to",
          "type": "address"
        },
        {
          "internalType": "bool",
          "name": "approved",
          "type": "bool"
        }
      ],
      "name": "setApprovalForAll",
      "outputs": [],
      "payable": false,
      "stateMutability": "nonpayable",
      "type": "function"
    },
    {
      "constant": false,
      "inputs": [
        {
          "internalType": "address",
          "name": "from",
          "type": "address"
        },
        {
          "internalType": "address",
          "name": "to",
          "type": "address"
        },
        {
          "internalType": "uint256",
          "name": "tokenId",
          "type": "uint256"
        }
      ],
      "name": "transferFrom",
      "outputs": [],
      "payable": false,
      "stateMutability": "nonpayable",
      "type": "function"
    },
    {
      "constant": false,
      "inputs": [
        {
          "internalType": "address",
          "name": "newOwner",
          "type": "address"
        }
      ],
      "name": "transferOwnership",
      "outputs": [],
      "payable": false,
      "stateMutability": "nonpayable",
      "type": "function"
    },
    {
      "constant": true,
      "inputs": [],
      "name": "transferPeriodEnds",
      "outputs": [
        {
          "internalType": "uint256",
          "name": "",
          "type": "uint256"
        }
      ],
      "payable": false,
      "stateMutability": "view",
      "type": "function"
    },
    {
      "constant": true,
      "inputs": [
        {
          "internalType": "uint256",
          "name": "tokenId",
          "type": "uint256"
        }
      ],
      "name": "ownerOf",
      "outputs": [
        {
          "internalType": "address",
          "name": "",
          "type": "address"
        }
      ],
      "payable": false,
      "stateMutability": "view",
      "type": "function"
    },
    {
      "constant": false,
      "inputs": [
        {
          "internalType": "address",
          "name": "controller",
          "type": "address"
        }
      ],
      "name": "addController",
      "outputs": [],
      "payable": false,
      "stateMutability": "nonpayable",
      "type": "function"
    },
    {
      "constant": false,
      "inputs": [
        {
          "internalType": "address",
          "name": "controller",
          "type": "address"
        }
      ],
      "name": "removeController",
      "outputs": [],
      "payable": false,
      "stateMutability": "nonpayable",
      "type": "function"
    },
    {
      "constant": false,
      "inputs": [
        {
          "internalType": "address",
          "name": "resolver",
          "type": "address"
        }
      ],
      "name": "setResolver",
      "outputs": [],
      "payable": false,
      "stateMutability": "nonpayable",
      "type": "function"
    },
    {
      "constant": true,
      "inputs": [
        {
          "internalType": "uint256",
          "name": "id",
          "type": "uint256"
        }
      ],
      "name": "nameExpires",
      "outputs": [
        {
          "internalType": "uint256",
          "name": "",
          "type": "uint256"
        }
      ],
      "payable": false,
      "stateMutability": "view",
      "type": "function"
    },
    {
      "constant": true,
      "inputs": [
        {
          "internalType": "uint256",
          "name": "id",
          "type": "uint256"
        }
      ],
      "name": "available",
      "outputs": [
        {
          "internalType": "bool",
          "name": "",
          "type": "bool"
        }
      ],
      "payable": false,
      "stateMutability": "view",
      "type": "function"
    },
    {
      "constant": false,
      "inputs": [
        {
          "internalType": "uint256",
          "name": "id",
          "type": "uint256"
        },
        {
          "internalType": "address",
          "name": "owner",
          "type": "address"
        },
        {
          "internalType": "uint256",
          "name": "duration",
          "type": "uint256"
        }
      ],
      "name": "register",
      "outputs": [
        {
          "internalType": "uint256",
          "name": "",
          "type": "uint256"
        }
      ],
      "payable": false,
      "stateMutability": "nonpayable",
      "type": "function"
    },
    {
      "constant": false,
      "inputs": [
        {
          "internalType": "uint256",
          "name": "id",
          "type": "uint256"
        },
        {
          "internalType": "address",
          "name": "owner",
          "type": "address"
        },
        {
          "internalType": "uint256",
          "name": "duration",
          "type": "uint256"
        }
      ],
      "name": "registerOnly",
      "outputs": [
        {
          "internalType": "uint256",
          "name": "",
          "type": "uint256"
        }
      ],
      "payable": false,
      "stateMutability": "nonpayable",
      "type": "function"
    },
    {
      "constant": false,
      "inputs": [
        {
          "internalType": "uint256",
          "name": "id",
          "type": "uint256"
        },
        {
          "internalType": "uint256",
          "name": "duration",
          "type": "uint256"
        }
      ],
      "name": "renew",
      "outputs": [
        {
          "internalType": "uint256",
          "name": "",
          "type": "uint256"
        }
      ],
      "payable": false,
      "stateMutability": "nonpayable",
      "type": "function"
    },
    {
      "constant": false,
      "inputs": [
        {
          "internalType": "uint256",
          "name": "id",
          "type": "uint256"
        },
        {
          "internalType": "address",
          "name": "owner",
          "type": "address"
        }
      ],
      "name": "reclaim",
      "outputs": [],
      "payable": false,
      "stateMutability": "nonpayable",
      "type": "function"
    },
    {
      "constant": false,
      "inputs": [
        {
          "internalType": "bytes32",
          "name": "label",
          "type": "bytes32"
        },
        {
          "internalType": "contract Deed",
          "name": "deed",
          "type": "address"
        },
        {
          "internalType": "uint256",
          "name": "",
          "type": "uint256"
        }
      ],
      "name": "acceptRegistrarTransfer",
      "outputs": [],
      "payable": false,
      "stateMutability": "nonpayable",
      "type": "function"
    },
    {
      "constant": true,
      "inputs": [
        {
          "internalType": "bytes4",
          "name": "interfaceID",
          "type": "bytes4"
        }
      ],
      "name": "supportsInterface",
      "outputs": [
        {
          "internalType": "bool",
          "name": "",
          "type": "bool"
        }
      ],
      "payable": false,
      "stateMutability": "view",
      "type": "function"
    }
  ],
  "bytecode": "0x60806040523480156200001157600080fd5b506040516200333138038062003331833981810160405260808110156200003757600080fd5b81019080805190602001909291908051906020019092919080519060200190929190805190602001909291905050506200007e6301ffc9a760e01b6200020360201b60201c565b33600160006101000a81548173ffffffffffffffffffffffffffffffffffffffff021916908373ffffffffffffffffffffffffffffffffffffffff160217905550600160009054906101000a900473ffffffffffffffffffffffffffffffffffffffff1673ffffffffffffffffffffffffffffffffffffffff16600073ffffffffffffffffffffffffffffffffffffffff167f8be0079c531659141344cd1fd0a4f28419497f9722a3daafe3b4186f6b6457e060405160405180910390a3620001546380ac58cd60e01b6200020360201b60201c565b6224ea00600202420181116200016957600080fd5b83600260006101000a81548173ffffffffffffffffffffffffffffffffffffffff021916908373ffffffffffffffffffffffffffffffffffffffff1602179055508160038190555082600a60006101000a81548173ffffffffffffffffffffffffffffffffffffffff021916908373ffffffffffffffffffffffffffffffffffffffff1602179055508060098190555050505050620002a3565b63ffffffff60e01b817bffffffffffffffffffffffffffffffffffffffffffffffffffffffff191614156200023757600080fd5b6001600080837bffffffffffffffffffffffffffffffffffffffffffffffffffffffff19167bffffffffffffffffffffffffffffffffffffffffffffffffffffffff1916815260200190815260200160002060006101000a81548160ff02191690831515021790555050565b61307e80620002b36000396000f3fe608060405234801561001057600080fd5b50600436106101e55760003560e01c80638f32d59b1161010f578063d6e4fa86116100a2578063ea9e107a11610071578063ea9e107a14610a72578063f2fde38b14610aca578063f6a74ed714610b0e578063fca247ac14610b52576101e5565b8063d6e4fa861461093a578063da8c229e1461097c578063ddf7fcb0146109d8578063e985e9c5146109f6576101e5565b8063ab14ec59116100de578063ab14ec5914610781578063b88d4fde146107cb578063c1a287e2146108d0578063c475abff146108ee576101e5565b80638f32d59b1461068557806396e494e8146106a7578063a22cb465146106ed578063a7fc7a071461073d576101e5565b806342842e0e116101875780636b1bd1c5116101565780636b1bd1c5146105bb57806370a08231146105d9578063715018a6146106315780638da5cb5b1461063b576101e5565b806342842e0e1461047d5780634ae05da7146104eb5780634e543b26146105095780636352211e1461054d576101e5565b80630e297b45116101c35780630e297b451461030b57806323b872dd1461037757806328ed4f6c146103e55780633f15457f14610433576101e5565b806301ffc9a7146101ea578063081812fc1461024f578063095ea7b3146102bd575b600080fd5b6102356004803603602081101561020057600080fd5b8101908080357bffffffffffffffffffffffffffffffffffffffffffffffffffffffff19169060200190929190505050610bbe565b604051808215151515815260200191505060405180910390f35b61027b6004803603602081101561026557600080fd5b8101908080359060200190929190505050610e7b565b604051808273ffffffffffffffffffffffffffffffffffffffff1673ffffffffffffffffffffffffffffffffffffffff16815260200191505060405180910390f35b610309600480360360408110156102d357600080fd5b81019080803573ffffffffffffffffffffffffffffffffffffffff16906020019092919080359060200190929190505050610eca565b005b6103616004803603606081101561032157600080fd5b8101908080359060200190929190803573ffffffffffffffffffffffffffffffffffffffff1690602001909291908035906020019092919050505061100b565b6040518082815260200191505060405180910390f35b6103e36004803603606081101561038d57600080fd5b81019080803573ffffffffffffffffffffffffffffffffffffffff169060200190929190803573ffffffffffffffffffffffffffffffffffffffff16906020019092919080359060200190929190505050611023565b005b610431600480360360408110156103fb57600080fd5b8101908080359060200190929190803573ffffffffffffffffffffffffffffffffffffffff169060200190929190505050611046565b005b61043b611236565b604051808273ffffffffffffffffffffffffffffffffffffffff1673ffffffffffffffffffffffffffffffffffffffff16815260200191505060405180910390f35b6104e96004803603606081101561049357600080fd5b81019080803573ffffffffffffffffffffffffffffffffffffffff169060200190929190803573ffffffffffffffffffffffffffffffffffffffff1690602001909291908035906020019092919050505061125c565b005b6104f361127c565b6040518082815260200191505060405180910390f35b61054b6004803603602081101561051f57600080fd5b81019080803573ffffffffffffffffffffffffffffffffffffffff169060200190929190505050611282565b005b6105796004803603602081101561056357600080fd5b8101908080359060200190929190505050611359565b604051808273ffffffffffffffffffffffffffffffffffffffff1673ffffffffffffffffffffffffffffffffffffffff16815260200191505060405180910390f35b6105c361138a565b6040518082815260200191505060405180910390f35b61061b600480360360208110156105ef57600080fd5b81019080803573ffffffffffffffffffffffffffffffffffffffff169060200190929190505050611391565b6040518082815260200191505060405180910390f35b610639611413565b005b6106436114e5565b604051808273ffffffffffffffffffffffffffffffffffffffff1673ffffffffffffffffffffffffffffffffffffffff16815260200191505060405180910390f35b61068d61150f565b604051808215151515815260200191505060405180910390f35b6106d3600480360360208110156106bd57600080fd5b8101908080359060200190929190505050611567565b604051808215151515815260200191505060405180910390f35b61073b6004803603604081101561070357600080fd5b81019080803573ffffffffffffffffffffffffffffffffffffffff16906020019092919080351515906020019092919050505061166f565b005b61077f6004803603602081101561075357600080fd5b81019080803573ffffffffffffffffffffffffffffffffffffffff1690602001909291905050506117a9565b005b610789611858565b604051808273ffffffffffffffffffffffffffffffffffffffff1673ffffffffffffffffffffffffffffffffffffffff16815260200191505060405180910390f35b6108ce600480360360808110156107e157600080fd5b81019080803573ffffffffffffffffffffffffffffffffffffffff169060200190929190803573ffffffffffffffffffffffffffffffffffffffff169060200190929190803590602001909291908035906020019064010000000081111561084857600080fd5b82018360208201111561085a57600080fd5b8035906020019184600183028401116401000000008311171561087c57600080fd5b91908080601f016020809104026020016040519081016040528093929190818152602001838380828437600081840152601f19601f82011690508083019250505050505050919291929050505061187e565b005b6108d86118a4565b6040518082815260200191505060405180910390f35b6109246004803603604081101561090457600080fd5b8101908080359060200190929190803590602001909291905050506118ab565b6040518082815260200191505060405180910390f35b6109666004803603602081101561095057600080fd5b8101908080359060200190929190505050611ac2565b6040518082815260200191505060405180910390f35b6109be6004803603602081101561099257600080fd5b81019080803573ffffffffffffffffffffffffffffffffffffffff169060200190929190505050611adf565b604051808215151515815260200191505060405180910390f35b6109e0611aff565b6040518082815260200191505060405180910390f35b610a5860048036036040811015610a0c57600080fd5b81019080803573ffffffffffffffffffffffffffffffffffffffff169060200190929190803573ffffffffffffffffffffffffffffffffffffffff169060200190929190505050611b05565b604051808215151515815260200191505060405180910390f35b610ac860048036036060811015610a8857600080fd5b8101908080359060200190929190803573ffffffffffffffffffffffffffffffffffffffff16906020019092919080359060200190929190505050611b99565b005b610b0c60048036036020811015610ae057600080fd5b81019080803573ffffffffffffffffffffffffffffffffffffffff1690602001909291905050506120b8565b005b610b5060048036036020811015610b2457600080fd5b81019080803573ffffffffffffffffffffffffffffffffffffffff1690602001909291905050506120d5565b005b610ba860048036036060811015610b6857600080fd5b8101908080359060200190929190803573ffffffffffffffffffffffffffffffffffffffff16906020019092919080359060200190929190505050612184565b6040518082815260200191505060405180910390f35b600060405180807f737570706f727473496e74657266616365286279746573342900000000000000815250601901905060405180910390207bffffffffffffffffffffffffffffffffffffffffffffffffffffffff1916827bffffffffffffffffffffffffffffffffffffffffffffffffffffffff19161480610df757506040518080612ffa602f9139602f01905060405180910390206040518080612fd160299139602901905060405180910390206040518080612fac60259139602501905060405180910390206040518080613029602191396021019050604051809103902060405180807f736574417070726f76616c466f72416c6c28616464726573732c626f6f6c2900815250601f019050604051809103902060405180807f676574417070726f7665642875696e74323536290000000000000000000000008152506014019050604051809103902060405180807f617070726f766528616464726573732c75696e743235362900000000000000008152506018019050604051809103902060405180807f6f776e65724f662875696e7432353629000000000000000000000000000000008152506010019050604051809103902060405180807f62616c616e63654f662875696e743235362900000000000000000000000000008152506012019050604051809103902018181818181818187bffffffffffffffffffffffffffffffffffffffffffffffffffffffff1916827bffffffffffffffffffffffffffffffffffffffffffffffffffffffff1916145b80610e74575060405180807f7265636c61696d2875696e743235362c61646472657373290000000000000000815250601801905060405180910390207bffffffffffffffffffffffffffffffffffffffffffffffffffffffff1916827bffffffffffffffffffffffffffffffffffffffffffffffffffffffff1916145b9050919050565b6000610e868261219c565b610e8f57600080fd5b6006600083815260200190815260200160002060009054906101000a900473ffffffffffffffffffffffffffffffffffffffff169050919050565b6000610ed582611359565b90508073ffffffffffffffffffffffffffffffffffffffff168373ffffffffffffffffffffffffffffffffffffffff161415610f1057600080fd5b8073ffffffffffffffffffffffffffffffffffffffff163373ffffffffffffffffffffffffffffffffffffffff161480610f505750610f4f8133611b05565b5b610f5957600080fd5b826006600084815260200190815260200160002060006101000a81548173ffffffffffffffffffffffffffffffffffffffff021916908373ffffffffffffffffffffffffffffffffffffffff160217905550818373ffffffffffffffffffffffffffffffffffffffff168273ffffffffffffffffffffffffffffffffffffffff167f8c5be1e5ebec7d5bd14f71427d1e84f3dd0314c0f7b2291e5b200ac8c7c3b92560405160405180910390a4505050565b600061101a848484600061220e565b90509392505050565b61102d338261250a565b61103657600080fd5b61104183838361259f565b505050565b3073ffffffffffffffffffffffffffffffffffffffff16600260009054906101000a900473ffffffffffffffffffffffffffffffffffffffff1673ffffffffffffffffffffffffffffffffffffffff166302571be36003546040518263ffffffff1660e01b81526004018082815260200191505060206040518083038186803b1580156110d257600080fd5b505afa1580156110e6573d6000803e3d6000fd5b505050506040513d60208110156110fc57600080fd5b810190808051906020019092919050505073ffffffffffffffffffffffffffffffffffffffff161461112d57600080fd5b611137338361250a565b61114057600080fd5b600260009054906101000a900473ffffffffffffffffffffffffffffffffffffffff1673ffffffffffffffffffffffffffffffffffffffff166306ab59236003548460001b846040518463ffffffff1660e01b8152600401808481526020018381526020018273ffffffffffffffffffffffffffffffffffffffff1673ffffffffffffffffffffffffffffffffffffffff1681526020019350505050602060405180830381600087803b1580156111f657600080fd5b505af115801561120a573d6000803e3d6000fd5b505050506040513d602081101561122057600080fd5b8101908080519060200190929190505050505050565b600260009054906101000a900473ffffffffffffffffffffffffffffffffffffffff1681565b6112778383836040518060200160405280600081525061187e565b505050565b60095481565b61128a61150f565b61129357600080fd5b600260009054906101000a900473ffffffffffffffffffffffffffffffffffffffff1673ffffffffffffffffffffffffffffffffffffffff16631896f70a600354836040518363ffffffff1660e01b8152600401808381526020018273ffffffffffffffffffffffffffffffffffffffff1673ffffffffffffffffffffffffffffffffffffffff16815260200192505050600060405180830381600087803b15801561133e57600080fd5b505af1158015611352573d6000803e3d6000fd5b5050505050565b600042600b6000848152602001908152602001600020541161137a57600080fd5b61138382612800565b9050919050565b6224ea0081565b60008073ffffffffffffffffffffffffffffffffffffffff168273ffffffffffffffffffffffffffffffffffffffff1614156113cc57600080fd5b600760008373ffffffffffffffffffffffffffffffffffffffff1673ffffffffffffffffffffffffffffffffffffffff168152602001908152602001600020549050919050565b61141b61150f565b61142457600080fd5b600073ffffffffffffffffffffffffffffffffffffffff16600160009054906101000a900473ffffffffffffffffffffffffffffffffffffffff1673ffffffffffffffffffffffffffffffffffffffff167f8be0079c531659141344cd1fd0a4f28419497f9722a3daafe3b4186f6b6457e060405160405180910390a36000600160006101000a81548173ffffffffffffffffffffffffffffffffffffffff021916908373ffffffffffffffffffffffffffffffffffffffff160217905550565b6000600160009054906101000a900473ffffffffffffffffffffffffffffffffffffffff16905090565b6000600160009054906101000a900473ffffffffffffffffffffffffffffffffffffffff1673ffffffffffffffffffffffffffffffffffffffff163373ffffffffffffffffffffffffffffffffffffffff1614905090565b6000426276a700600b6000858152602001908152602001600020540110611591576000905061166a565b6009544211806116675750600060058111156115a957fe5b600a60009054906101000a900473ffffffffffffffffffffffffffffffffffffffff1673ffffffffffffffffffffffffffffffffffffffff166361d585da8460001b6040518263ffffffff1660e01b81526004018082815260200191505060206040518083038186803b15801561161f57600080fd5b505afa158015611633573d6000803e3d6000fd5b505050506040513d602081101561164957600080fd5b8101908080519060200190929190505050600581111561166557fe5b145b90505b919050565b3373ffffffffffffffffffffffffffffffffffffffff168273ffffffffffffffffffffffffffffffffffffffff1614156116a857600080fd5b80600860003373ffffffffffffffffffffffffffffffffffffffff1673ffffffffffffffffffffffffffffffffffffffff16815260200190815260200160002060008473ffffffffffffffffffffffffffffffffffffffff1673ffffffffffffffffffffffffffffffffffffffff16815260200190815260200160002060006101000a81548160ff0219169083151502179055508173ffffffffffffffffffffffffffffffffffffffff163373ffffffffffffffffffffffffffffffffffffffff167f17307eab39ab6107e8899845ad3d59bd9653f200f220920489ca2b5937696c3183604051808215151515815260200191505060405180910390a35050565b6117b161150f565b6117ba57600080fd5b6001600460008373ffffffffffffffffffffffffffffffffffffffff1673ffffffffffffffffffffffffffffffffffffffff16815260200190815260200160002060006101000a81548160ff0219169083151502179055508073ffffffffffffffffffffffffffffffffffffffff167f0a8bb31534c0ed46f380cb867bd5c803a189ced9a764e30b3a4991a9901d747460405160405180910390a250565b600a60009054906101000a900473ffffffffffffffffffffffffffffffffffffffff1681565b611889848484611023565b6118958484848461287c565b61189e57600080fd5b50505050565b6276a70081565b60003073ffffffffffffffffffffffffffffffffffffffff16600260009054906101000a900473ffffffffffffffffffffffffffffffffffffffff1673ffffffffffffffffffffffffffffffffffffffff166302571be36003546040518263ffffffff1660e01b81526004018082815260200191505060206040518083038186803b15801561193957600080fd5b505afa15801561194d573d6000803e3d6000fd5b505050506040513d602081101561196357600080fd5b810190808051906020019092919050505073ffffffffffffffffffffffffffffffffffffffff161461199457600080fd5b600460003373ffffffffffffffffffffffffffffffffffffffff1673ffffffffffffffffffffffffffffffffffffffff16815260200190815260200160002060009054906101000a900460ff166119ea57600080fd5b426276a700600b600086815260200190815260200160002054011015611a0f57600080fd5b6276a70082016276a70083600b600087815260200190815260200160002054010111611a3a57600080fd5b81600b600085815260200190815260200160002060008282540192505081905550827f9b87a00e30f1ac65d898f070f8a3488fe60517182d0a2098e1b4b93a54aa9bd6600b6000868152602001908152602001600020546040518082815260200191505060405180910390a2600b600084815260200190815260200160002054905092915050565b6000600b6000838152602001908152602001600020549050919050565b60046020528060005260406000206000915054906101000a900460ff1681565b60035481565b6000600860008473ffffffffffffffffffffffffffffffffffffffff1673ffffffffffffffffffffffffffffffffffffffff16815260200190815260200160002060008373ffffffffffffffffffffffffffffffffffffffff1673ffffffffffffffffffffffffffffffffffffffff16815260200190815260200160002060009054906101000a900460ff16905092915050565b3073ffffffffffffffffffffffffffffffffffffffff16600260009054906101000a900473ffffffffffffffffffffffffffffffffffffffff1673ffffffffffffffffffffffffffffffffffffffff166302571be36003546040518263ffffffff1660e01b81526004018082815260200191505060206040518083038186803b158015611c2557600080fd5b505afa158015611c39573d6000803e3d6000fd5b505050506040513d6020811015611c4f57600080fd5b810190808051906020019092919050505073ffffffffffffffffffffffffffffffffffffffff1614611c8057600080fd5b60008360001c9050600a60009054906101000a900473ffffffffffffffffffffffffffffffffffffffff1673ffffffffffffffffffffffffffffffffffffffff163373ffffffffffffffffffffffffffffffffffffffff1614611ce257600080fd5b6000600b60008381526020019081526020016000205414611d0257600080fd5b4260095411611d1057600080fd5b6000600a60009054906101000a900473ffffffffffffffffffffffffffffffffffffffff1673ffffffffffffffffffffffffffffffffffffffff1663267b6922866040518263ffffffff1660e01b81526004018082815260200191505060a06040518083038186803b158015611d8557600080fd5b505afa158015611d99573d6000803e3d6000fd5b505050506040513d60a0811015611daf57600080fd5b810190808051906020019092919080519060200190929190805190602001909291908051906020019092919080519060200190929190505050909192935090919250905050809150506224ea0042038110611e0957600080fd5b60008473ffffffffffffffffffffffffffffffffffffffff16638da5cb5b6040518163ffffffff1660e01b815260040160206040518083038186803b158015611e5157600080fd5b505afa158015611e65573d6000803e3d6000fd5b505050506040513d6020811015611e7b57600080fd5b810190808051906020019092919050505090508473ffffffffffffffffffffffffffffffffffffffff1663bbe427716103e86040518263ffffffff1660e01b815260040180828152602001915050600060405180830381600087803b158015611ee357600080fd5b505af1158015611ef7573d6000803e3d6000fd5b50505050600954600b600085815260200190815260200160002081905550611f1f8184612a65565b600260009054906101000a900473ffffffffffffffffffffffffffffffffffffffff1673ffffffffffffffffffffffffffffffffffffffff166306ab592360035488846040518463ffffffff1660e01b8152600401808481526020018381526020018273ffffffffffffffffffffffffffffffffffffffff1673ffffffffffffffffffffffffffffffffffffffff1681526020019350505050602060405180830381600087803b158015611fd257600080fd5b505af1158015611fe6573d6000803e3d6000fd5b505050506040513d6020811015611ffc57600080fd5b8101908080519060200190929190505050508073ffffffffffffffffffffffffffffffffffffffff16837fea3d7e1195a15d2ddcd859b01abd4c6b960fa9f9264e499a70a90c7f0c64b7176009546040518082815260200191505060405180910390a38073ffffffffffffffffffffffffffffffffffffffff16837fb3d987963d01b2f68493b4bdb130988f157ea43070d4ad840fee0466ed9370d96009546040518082815260200191505060405180910390a3505050505050565b6120c061150f565b6120c957600080fd5b6120d281612bfa565b50565b6120dd61150f565b6120e657600080fd5b6000600460008373ffffffffffffffffffffffffffffffffffffffff1673ffffffffffffffffffffffffffffffffffffffff16815260200190815260200160002060006101000a81548160ff0219169083151502179055508073ffffffffffffffffffffffffffffffffffffffff167f33d83959be2573f5453b12eb9d43b3499bc57d96bd2f067ba44803c859e8111360405160405180910390a250565b6000612193848484600161220e565b90509392505050565b6000806005600084815260200190815260200160002060009054906101000a900473ffffffffffffffffffffffffffffffffffffffff169050600073ffffffffffffffffffffffffffffffffffffffff168173ffffffffffffffffffffffffffffffffffffffff161415915050919050565b60003073ffffffffffffffffffffffffffffffffffffffff16600260009054906101000a900473ffffffffffffffffffffffffffffffffffffffff1673ffffffffffffffffffffffffffffffffffffffff166302571be36003546040518263ffffffff1660e01b81526004018082815260200191505060206040518083038186803b15801561229c57600080fd5b505afa1580156122b0573d6000803e3d6000fd5b505050506040513d60208110156122c657600080fd5b810190808051906020019092919050505073ffffffffffffffffffffffffffffffffffffffff16146122f757600080fd5b600460003373ffffffffffffffffffffffffffffffffffffffff1673ffffffffffffffffffffffffffffffffffffffff16815260200190815260200160002060009054906101000a900460ff1661234d57600080fd5b61235685611567565b61235f57600080fd5b6276a70042016276a700844201011161237757600080fd5b824201600b60008781526020019081526020016000208190555061239a8561219c565b156123a9576123a885612cf4565b5b6123b38486612a65565b81156124ac57600260009054906101000a900473ffffffffffffffffffffffffffffffffffffffff1673ffffffffffffffffffffffffffffffffffffffff166306ab59236003548760001b876040518463ffffffff1660e01b8152600401808481526020018381526020018273ffffffffffffffffffffffffffffffffffffffff1673ffffffffffffffffffffffffffffffffffffffff1681526020019350505050602060405180830381600087803b15801561246f57600080fd5b505af1158015612483573d6000803e3d6000fd5b505050506040513d602081101561249957600080fd5b8101908080519060200190929190505050505b8373ffffffffffffffffffffffffffffffffffffffff16857fb3d987963d01b2f68493b4bdb130988f157ea43070d4ad840fee0466ed9370d98542016040518082815260200191505060405180910390a38242019050949350505050565b60008061251683611359565b90508073ffffffffffffffffffffffffffffffffffffffff168473ffffffffffffffffffffffffffffffffffffffff16148061258557508373ffffffffffffffffffffffffffffffffffffffff1661256d84610e7b565b73ffffffffffffffffffffffffffffffffffffffff16145b8061259657506125958185611b05565b5b91505092915050565b8273ffffffffffffffffffffffffffffffffffffffff166125bf82611359565b73ffffffffffffffffffffffffffffffffffffffff16146125df57600080fd5b600073ffffffffffffffffffffffffffffffffffffffff168273ffffffffffffffffffffffffffffffffffffffff16141561261957600080fd5b61262281612d09565b6126756001600760008673ffffffffffffffffffffffffffffffffffffffff1673ffffffffffffffffffffffffffffffffffffffff16815260200190815260200160002054612dc790919063ffffffff16565b600760008573ffffffffffffffffffffffffffffffffffffffff1673ffffffffffffffffffffffffffffffffffffffff1681526020019081526020016000208190555061270b6001600760008573ffffffffffffffffffffffffffffffffffffffff1673ffffffffffffffffffffffffffffffffffffffff16815260200190815260200160002054612de790919063ffffffff16565b600760008473ffffffffffffffffffffffffffffffffffffffff1673ffffffffffffffffffffffffffffffffffffffff16815260200190815260200160002081905550816005600083815260200190815260200160002060006101000a81548173ffffffffffffffffffffffffffffffffffffffff021916908373ffffffffffffffffffffffffffffffffffffffff160217905550808273ffffffffffffffffffffffffffffffffffffffff168473ffffffffffffffffffffffffffffffffffffffff167fddf252ad1be2c89b69c2b068fc378daa952ba7f163c4a11628f55a4df523b3ef60405160405180910390a4505050565b6000806005600084815260200190815260200160002060009054906101000a900473ffffffffffffffffffffffffffffffffffffffff169050600073ffffffffffffffffffffffffffffffffffffffff168173ffffffffffffffffffffffffffffffffffffffff16141561287357600080fd5b80915050919050565b600061289d8473ffffffffffffffffffffffffffffffffffffffff16612e06565b6128aa5760019050612a5d565b60008473ffffffffffffffffffffffffffffffffffffffff1663150b7a02338887876040518563ffffffff1660e01b8152600401808573ffffffffffffffffffffffffffffffffffffffff1673ffffffffffffffffffffffffffffffffffffffff1681526020018473ffffffffffffffffffffffffffffffffffffffff1673ffffffffffffffffffffffffffffffffffffffff16815260200183815260200180602001828103825283818151815260200191508051906020019080838360005b8381101561298557808201518184015260208101905061296a565b50505050905090810190601f1680156129b25780820380516001836020036101000a031916815260200191505b5095505050505050602060405180830381600087803b1580156129d457600080fd5b505af11580156129e8573d6000803e3d6000fd5b505050506040513d60208110156129fe57600080fd5b8101908080519060200190929190505050905063150b7a0260e01b7bffffffffffffffffffffffffffffffffffffffffffffffffffffffff1916817bffffffffffffffffffffffffffffffffffffffffffffffffffffffff1916149150505b949350505050565b600073ffffffffffffffffffffffffffffffffffffffff168273ffffffffffffffffffffffffffffffffffffffff161415612a9f57600080fd5b612aa88161219c565b15612ab257600080fd5b816005600083815260200190815260200160002060006101000a81548173ffffffffffffffffffffffffffffffffffffffff021916908373ffffffffffffffffffffffffffffffffffffffff160217905550612b576001600760008573ffffffffffffffffffffffffffffffffffffffff1673ffffffffffffffffffffffffffffffffffffffff16815260200190815260200160002054612de790919063ffffffff16565b600760008473ffffffffffffffffffffffffffffffffffffffff1673ffffffffffffffffffffffffffffffffffffffff16815260200190815260200160002081905550808273ffffffffffffffffffffffffffffffffffffffff16600073ffffffffffffffffffffffffffffffffffffffff167fddf252ad1be2c89b69c2b068fc378daa952ba7f163c4a11628f55a4df523b3ef60405160405180910390a45050565b600073ffffffffffffffffffffffffffffffffffffffff168173ffffffffffffffffffffffffffffffffffffffff161415612c3457600080fd5b8073ffffffffffffffffffffffffffffffffffffffff16600160009054906101000a900473ffffffffffffffffffffffffffffffffffffffff1673ffffffffffffffffffffffffffffffffffffffff167f8be0079c531659141344cd1fd0a4f28419497f9722a3daafe3b4186f6b6457e060405160405180910390a380600160006101000a81548173ffffffffffffffffffffffffffffffffffffffff021916908373ffffffffffffffffffffffffffffffffffffffff16021790555050565b612d06612d0082611359565b82612e19565b50565b600073ffffffffffffffffffffffffffffffffffffffff166006600083815260200190815260200160002060009054906101000a900473ffffffffffffffffffffffffffffffffffffffff1673ffffffffffffffffffffffffffffffffffffffff1614612dc45760006006600083815260200190815260200160002060006101000a81548173ffffffffffffffffffffffffffffffffffffffff021916908373ffffffffffffffffffffffffffffffffffffffff1602179055505b50565b600082821115612dd657600080fd5b600082840390508091505092915050565b600080828401905083811015612dfc57600080fd5b8091505092915050565b600080823b905060008111915050919050565b8173ffffffffffffffffffffffffffffffffffffffff16612e3982611359565b73ffffffffffffffffffffffffffffffffffffffff1614612e5957600080fd5b612e6281612d09565b612eb56001600760008573ffffffffffffffffffffffffffffffffffffffff1673ffffffffffffffffffffffffffffffffffffffff16815260200190815260200160002054612dc790919063ffffffff16565b600760008473ffffffffffffffffffffffffffffffffffffffff1673ffffffffffffffffffffffffffffffffffffffff1681526020019081526020016000208190555060006005600083815260200190815260200160002060006101000a81548173ffffffffffffffffffffffffffffffffffffffff021916908373ffffffffffffffffffffffffffffffffffffffff16021790555080600073ffffffffffffffffffffffffffffffffffffffff168373ffffffffffffffffffffffffffffffffffffffff167fddf252ad1be2c89b69c2b068fc378daa952ba7f163c4a11628f55a4df523b3ef60405160405180910390a4505056fe7472616e7366657246726f6d28616464726573732c616464726573732c75696e7432353629736166655472616e7366657246726f6d28616464726573732c616464726573732c75696e7432353629736166655472616e7366657246726f6d28616464726573732c616464726573732c75696e743235362c6279746573296973417070726f766564466f72416c6c28616464726573732c6164647265737329a265627a7a723158206e0289710176c394588010f602eb49cb51dff3ec6fb3627c4cf58fc94695675c64736f6c63430005100032",
  "source": "pragma solidity ^0.5.0;\n\nimport \"@ensdomains/ens/contracts/ENS.sol\";\nimport \"@ensdomains/ens/contracts/Registrar.sol\";\nimport \"@ensdomains/ens/contracts/HashRegistrar.sol\";\nimport \"openzeppelin-solidity/contracts/token/ERC721/ERC721.sol\";\nimport \"./BaseRegistrar.sol\";\n\ncontract OldBaseRegistrarImplementation is BaseRegistrar, ERC721 {\n    // Expiration timestamp for migrated domains.\n    uint public transferPeriodEnds;\n\n    // The interim registrar\n    Registrar public previousRegistrar;\n\n    // A map of expiry times\n    mapping(uint256=>uint) expiries;\n\n    uint constant public MIGRATION_LOCK_PERIOD = 28 days;\n\n    bytes4 constant private INTERFACE_META_ID = bytes4(keccak256(\"supportsInterface(bytes4)\"));\n    bytes4 constant private ERC721_ID = bytes4(\n        keccak256(\"balanceOf(uint256)\") ^\n        keccak256(\"ownerOf(uint256)\") ^\n        keccak256(\"approve(address,uint256)\") ^\n        keccak256(\"getApproved(uint256)\") ^\n        keccak256(\"setApprovalForAll(address,bool)\") ^\n        keccak256(\"isApprovedForAll(address,address)\") ^\n        keccak256(\"transferFrom(address,address,uint256)\") ^\n        keccak256(\"safeTransferFrom(address,address,uint256)\") ^\n        keccak256(\"safeTransferFrom(address,address,uint256,bytes)\")\n    );\n    bytes4 constant private RECLAIM_ID = bytes4(keccak256(\"reclaim(uint256,address)\"));\n\n    constructor(ENS _ens, HashRegistrar _previousRegistrar, bytes32 _baseNode, uint _transferPeriodEnds) public {\n        // Require that people have time to transfer names over.\n        require(_transferPeriodEnds > now + 2 * MIGRATION_LOCK_PERIOD);\n\n        ens = _ens;\n        baseNode = _baseNode;\n        previousRegistrar = _previousRegistrar;\n        transferPeriodEnds = _transferPeriodEnds;\n    }\n\n    modifier live {\n        require(ens.owner(baseNode) == address(this));\n        _;\n    }\n\n    modifier onlyController {\n        require(controllers[msg.sender]);\n        _;\n    }\n\n    /**\n     * @dev Gets the owner of the specified token ID. Names become unowned\n     *      when their registration expires.\n     * @param tokenId uint256 ID of the token to query the owner of\n     * @return address currently marked as the owner of the given token ID\n     */\n    function ownerOf(uint256 tokenId) public view returns (address) {\n        require(expiries[tokenId] > now);\n        return super.ownerOf(tokenId);\n    }\n\n    // Authorises a controller, who can register and renew domains.\n    function addController(address controller) external onlyOwner {\n        controllers[controller] = true;\n        emit ControllerAdded(controller);\n    }\n\n    // Revoke controller permission for an address.\n    function removeController(address controller) external onlyOwner {\n        controllers[controller] = false;\n        emit ControllerRemoved(controller);\n    }\n\n    // Set the resolver for the TLD this registrar manages.\n    function setResolver(address resolver) external onlyOwner {\n        ens.setResolver(baseNode, resolver);\n    }\n\n    // Returns the expiration timestamp of the specified id.\n    function nameExpires(uint256 id) external view returns(uint) {\n        return expiries[id];\n    }\n\n    // Returns true iff the specified name is available for registration.\n    function available(uint256 id) public view returns(bool) {\n        // Not available if it's registered here or in its grace period.\n        if(expiries[id] + GRACE_PERIOD >= now) {\n            return false;\n        }\n        // Available if we're past the transfer period, or the name isn't\n        // registered in the legacy registrar.\n        return now > transferPeriodEnds || previousRegistrar.state(bytes32(id)) == Registrar.Mode.Open;\n    }\n\n    /**\n     * @dev Register a name.\n     */\n    function register(uint256 id, address owner, uint duration) external returns(uint) {\n      return _register(id, owner, duration, true);\n    }\n\n    /**\n     * @dev Register a name.\n     */\n    function registerOnly(uint256 id, address owner, uint duration) external returns(uint) {\n      return _register(id, owner, duration, false);\n    }\n\n    /**\n     * @dev Register a name.\n     */\n    function _register(uint256 id, address owner, uint duration, bool updateRegistry) internal live onlyController returns(uint) {\n        require(available(id));\n        require(now + duration + GRACE_PERIOD > now + GRACE_PERIOD); // Prevent future overflow\n\n        expiries[id] = now + duration;\n        if(_exists(id)) {\n            // Name was previously owned, and expired\n            _burn(id);\n        }\n        _mint(owner, id);\n        if(updateRegistry) {\n            ens.setSubnodeOwner(baseNode, bytes32(id), owner);\n        }\n\n        emit NameRegistered(id, owner, now + duration);\n\n        return now + duration;\n    }\n\n    function renew(uint256 id, uint duration) external live onlyController returns(uint) {\n        require(expiries[id] + GRACE_PERIOD >= now); // Name must be registered here or in grace period\n        require(expiries[id] + duration + GRACE_PERIOD > duration + GRACE_PERIOD); // Prevent future overflow\n\n        expiries[id] += duration;\n        emit NameRenewed(id, expiries[id]);\n        return expiries[id];\n    }\n\n    /**\n     * @dev Reclaim ownership of a name in ENS, if you own it in the registrar.\n     */\n    function reclaim(uint256 id, address owner) external live {\n        require(_isApprovedOrOwner(msg.sender, id));\n        ens.setSubnodeOwner(baseNode, bytes32(id), owner);\n    }\n\n    /**\n     * @dev Transfers a registration from the initial registrar.\n     * This function is called by the initial registrar when a user calls `transferRegistrars`.\n     */\n    function acceptRegistrarTransfer(bytes32 label, Deed deed, uint) external live {\n        uint256 id = uint256(label);\n\n        require(msg.sender == address(previousRegistrar));\n        require(expiries[id] == 0);\n        require(transferPeriodEnds > now);\n\n        uint registrationDate;\n        (,,registrationDate,,) = previousRegistrar.entries(label);\n        require(registrationDate < now - MIGRATION_LOCK_PERIOD);\n\n        address owner = deed.owner();\n\n        // Destroy the deed and transfer the funds back to the registrant.\n        deed.closeDeed(1000);\n\n        // Register the name\n        expiries[id] = transferPeriodEnds;\n        _mint(owner, id);\n\n        ens.setSubnodeOwner(baseNode, label, owner);\n\n        emit NameMigrated(id, owner, transferPeriodEnds);\n        emit NameRegistered(id, owner, transferPeriodEnds);\n    }\n\n    function supportsInterface(bytes4 interfaceID) external view returns (bool) {\n        return interfaceID == INTERFACE_META_ID ||\n               interfaceID == ERC721_ID ||\n               interfaceID == RECLAIM_ID;\n    }\n}\n",
  "sourcePath": "@ensdomains/ethregistrar/contracts/OldBaseRegistrarImplementation.sol",
  "compiler": {
    "name": "solc",
    "version": "0.5.16+commit.9c3226ce.Emscripten.clang"
  },
  "schemaVersion": "3.0.22",
  "updatedAt": "2020-02-11T22:30:19.804Z",
  "devdoc": {
    "methods": {
      "acceptRegistrarTransfer(bytes32,address,uint256)": {
        "details": "Transfers a registration from the initial registrar. This function is called by the initial registrar when a user calls `transferRegistrars`."
      },
      "approve(address,uint256)": {
        "details": "Approves another address to transfer the given token ID The zero address indicates there is no approved address. There can only be one approved address per token at a given time. Can only be called by the token owner or an approved operator.",
        "params": {
          "to": "address to be approved for the given token ID",
          "tokenId": "uint256 ID of the token to be approved"
        }
      },
      "balanceOf(address)": {
        "details": "Gets the balance of the specified address",
        "params": {
          "owner": "address to query the balance of"
        },
        "return": "uint256 representing the amount owned by the passed address"
      },
      "getApproved(uint256)": {
        "details": "Gets the approved address for a token ID, or zero if no address set Reverts if the token ID does not exist.",
        "params": {
          "tokenId": "uint256 ID of the token to query the approval of"
        },
        "return": "address currently approved for the given token ID"
      },
      "isApprovedForAll(address,address)": {
        "details": "Tells whether an operator is approved by a given owner",
        "params": {
          "operator": "operator address which you want to query the approval of",
          "owner": "owner address which you want to query the approval of"
        },
        "return": "bool whether the given operator is approved by the given owner"
      },
      "isOwner()": {
        "return": "true if `msg.sender` is the owner of the contract."
      },
      "owner()": {
        "return": "the address of the owner."
      },
      "ownerOf(uint256)": {
        "details": "Gets the owner of the specified token ID. Names become unowned     when their registration expires.",
        "params": {
          "tokenId": "uint256 ID of the token to query the owner of"
        },
        "return": "address currently marked as the owner of the given token ID"
      },
      "reclaim(uint256,address)": {
        "details": "Reclaim ownership of a name in ENS, if you own it in the registrar."
      },
      "register(uint256,address,uint256)": {
        "details": "Register a name."
      },
      "registerOnly(uint256,address,uint256)": {
        "details": "Register a name."
      },
      "renounceOwnership()": {
        "details": "Allows the current owner to relinquish control of the contract."
      },
      "safeTransferFrom(address,address,uint256)": {
        "details": "Safely transfers the ownership of a given token ID to another address If the target address is a contract, it must implement `onERC721Received`, which is called upon a safe transfer, and return the magic value `bytes4(keccak256(\"onERC721Received(address,address,uint256,bytes)\"))`; otherwise, the transfer is reverted.     * Requires the msg sender to be the owner, approved, or operator",
        "params": {
          "from": "current owner of the token",
          "to": "address to receive the ownership of the given token ID",
          "tokenId": "uint256 ID of the token to be transferred"
        }
      },
      "safeTransferFrom(address,address,uint256,bytes)": {
        "details": "Safely transfers the ownership of a given token ID to another address If the target address is a contract, it must implement `onERC721Received`, which is called upon a safe transfer, and return the magic value `bytes4(keccak256(\"onERC721Received(address,address,uint256,bytes)\"))`; otherwise, the transfer is reverted. Requires the msg sender to be the owner, approved, or operator",
        "params": {
          "_data": "bytes data to send along with a safe transfer check",
          "from": "current owner of the token",
          "to": "address to receive the ownership of the given token ID",
          "tokenId": "uint256 ID of the token to be transferred"
        }
      },
      "setApprovalForAll(address,bool)": {
        "details": "Sets or unsets the approval of a given operator An operator is allowed to transfer all tokens of the sender on their behalf",
        "params": {
          "approved": "representing the status of the approval to be set",
          "to": "operator address to set the approval"
        }
      },
      "transferFrom(address,address,uint256)": {
        "details": "Transfers the ownership of a given token ID to another address Usage of this method is discouraged, use `safeTransferFrom` whenever possible Requires the msg sender to be the owner, approved, or operator",
        "params": {
          "from": "current owner of the token",
          "to": "address to receive the ownership of the given token ID",
          "tokenId": "uint256 ID of the token to be transferred"
        }
      },
      "transferOwnership(address)": {
        "details": "Allows the current owner to transfer control of the contract to a newOwner.",
        "params": {
          "newOwner": "The address to transfer ownership to."
        }
      }
    }
  },
  "userdoc": {
    "methods": {
      "renounceOwnership()": {
        "notice": "Renouncing to ownership will leave the contract without an owner. It will not be possible to call the functions with the `onlyOwner` modifier anymore."
      }
    }
  }
}