{
  "contractName": "SubdomainMigrationRegistrar",
  "abi": [
    {
      "inputs": [
        {
          "internalType": "address",
          "name": "_previousRegistrar",
          "type": "address"
        },
        {
          "internalType": "address payable",
          "name": "_newRegistrar",
          "type": "address"
        },
        {
          "internalType": "contract HashRegistrar",
          "name": "_hashRegistrar",
          "type": "address"
        },
        {
          "internalType": "contract BaseRegistrar",
          "name": "_ethRegistrar",
          "type": "address"
        }
      ],
      "payable": false,
      "stateMutability": "nonpayable",
      "type": "constructor"
    },
    {
      "payable": true,
      "stateMutability": "payable",
      "type": "fallback"
    },
    {
      "constant": true,
      "inputs": [],
      "name": "TLD_NODE",
      "outputs": [
        {
          "internalType": "bytes32",
          "name": "",
          "type": "bytes32"
        }
      ],
      "payable": false,
      "stateMutability": "view",
      "type": "function"
    },
    {
      "constant": true,
      "inputs": [],
      "name": "ethRegistrar",
      "outputs": [
        {
          "internalType": "contract BaseRegistrar",
          "name": "",
          "type": "address"
        }
      ],
      "payable": false,
      "stateMutability": "view",
      "type": "function"
    },
    {
      "constant": true,
      "inputs": [],
      "name": "hashRegistrar",
      "outputs": [
        {
          "internalType": "contract HashRegistrar",
          "name": "",
          "type": "address"
        }
      ],
      "payable": false,
      "stateMutability": "view",
      "type": "function"
    },
    {
      "constant": true,
      "inputs": [],
      "name": "newRegistrar",
      "outputs": [
        {
          "internalType": "address payable",
          "name": "",
          "type": "address"
        }
      ],
      "payable": false,
      "stateMutability": "view",
      "type": "function"
    },
    {
      "constant": true,
      "inputs": [],
      "name": "previousRegistrar",
      "outputs": [
        {
          "internalType": "address",
          "name": "",
          "type": "address"
        }
      ],
      "payable": false,
      "stateMutability": "view",
      "type": "function"
    },
    {
      "constant": false,
      "inputs": [
        {
          "internalType": "string",
          "name": "name",
          "type": "string"
        },
        {
          "internalType": "uint256",
          "name": "price",
          "type": "uint256"
        },
        {
          "internalType": "uint256",
          "name": "referralFeePPM",
          "type": "uint256"
        },
        {
          "internalType": "address payable",
          "name": "_owner",
          "type": "address"
        },
        {
          "internalType": "address",
          "name": "_transfer",
          "type": "address"
        }
      ],
      "name": "configureDomainFor",
      "outputs": [],
      "payable": false,
      "stateMutability": "nonpayable",
      "type": "function"
    }
  ],
  "bytecode": "0x608060405234801561001057600080fd5b50604051610a6b380380610a6b8339818101604052608081101561003357600080fd5b810190808051906020019092919080519060200190929190805190602001909291908051906020019092919050505083600260006101000a81548173ffffffffffffffffffffffffffffffffffffffff021916908373ffffffffffffffffffffffffffffffffffffffff16021790555082600360006101000a81548173ffffffffffffffffffffffffffffffffffffffff021916908373ffffffffffffffffffffffffffffffffffffffff160217905550816000806101000a81548173ffffffffffffffffffffffffffffffffffffffff021916908373ffffffffffffffffffffffffffffffffffffffff16021790555080600160006101000a81548173ffffffffffffffffffffffffffffffffffffffff021916908373ffffffffffffffffffffffffffffffffffffffff160217905550505050506108f3806101786000396000f3fe6080604052600436106100555760003560e01c8063387c0cb4146100575780633c9b51b4146100ae578063565b052b1461010557806396df35401461015c578063ab14ec5914610187578063cf775255146101de575b005b34801561006357600080fd5b5061006c6102fa565b604051808273ffffffffffffffffffffffffffffffffffffffff1673ffffffffffffffffffffffffffffffffffffffff16815260200191505060405180910390f35b3480156100ba57600080fd5b506100c361031f565b604051808273ffffffffffffffffffffffffffffffffffffffff1673ffffffffffffffffffffffffffffffffffffffff16815260200191505060405180910390f35b34801561011157600080fd5b5061011a610345565b604051808273ffffffffffffffffffffffffffffffffffffffff1673ffffffffffffffffffffffffffffffffffffffff16815260200191505060405180910390f35b34801561016857600080fd5b5061017161036b565b6040518082815260200191505060405180910390f35b34801561019357600080fd5b5061019c610392565b604051808273ffffffffffffffffffffffffffffffffffffffff1673ffffffffffffffffffffffffffffffffffffffff16815260200191505060405180910390f35b3480156101ea57600080fd5b506102f8600480360360a081101561020157600080fd5b810190808035906020019064010000000081111561021e57600080fd5b82018360208201111561023057600080fd5b8035906020019184600183028401116401000000008311171561025257600080fd5b91908080601f016020809104026020016040519081016040528093929190818152602001838380828437600081840152601f19601f8201169050808301925050505050505091929192908035906020019092919080359060200190929190803573ffffffffffffffffffffffffffffffffffffffff169060200190929190803573ffffffffffffffffffffffffffffffffffffffff1690602001909291905050506103b8565b005b6000809054906101000a900473ffffffffffffffffffffffffffffffffffffffff1681565b600360009054906101000a900473ffffffffffffffffffffffffffffffffffffffff1681565b600160009054906101000a900473ffffffffffffffffffffffffffffffffffffffff1681565b7f93cdeb708b7545dc668eb9280176169d1c33cfd8ed6f04690a0bcc88a93fc4ae60001b81565b600260009054906101000a900473ffffffffffffffffffffffffffffffffffffffff1681565b600260009054906101000a900473ffffffffffffffffffffffffffffffffffffffff1673ffffffffffffffffffffffffffffffffffffffff163373ffffffffffffffffffffffffffffffffffffffff161461041257600080fd5b6000858051906020012090506000610429826107d7565b73ffffffffffffffffffffffffffffffffffffffff16633fa4f2456040518163ffffffff1660e01b815260040160206040518083038186803b15801561046e57600080fd5b505afa158015610482573d6000803e3d6000fd5b505050506040513d602081101561049857600080fd5b810190808051906020019092919050505090506000809054906101000a900473ffffffffffffffffffffffffffffffffffffffff1673ffffffffffffffffffffffffffffffffffffffff16635ddae283836040518263ffffffff1660e01b815260040180828152602001915050600060405180830381600087803b15801561051f57600080fd5b505af1158015610533573d6000803e3d6000fd5b50505050600160009054906101000a900473ffffffffffffffffffffffffffffffffffffffff1673ffffffffffffffffffffffffffffffffffffffff1663095ea7b3600360009054906101000a900473ffffffffffffffffffffffffffffffffffffffff168460001c6040518363ffffffff1660e01b8152600401808373ffffffffffffffffffffffffffffffffffffffff1673ffffffffffffffffffffffffffffffffffffffff16815260200182815260200192505050600060405180830381600087803b15801561060557600080fd5b505af1158015610619573d6000803e3d6000fd5b505050508373ffffffffffffffffffffffffffffffffffffffff166108fc829081150290604051600060405180830381858888f19350505050158015610663573d6000803e3d6000fd5b50600360009054906101000a900473ffffffffffffffffffffffffffffffffffffffff1673ffffffffffffffffffffffffffffffffffffffff1663cf77525588888888886040518663ffffffff1660e01b815260040180806020018681526020018581526020018473ffffffffffffffffffffffffffffffffffffffff1673ffffffffffffffffffffffffffffffffffffffff1681526020018373ffffffffffffffffffffffffffffffffffffffff1673ffffffffffffffffffffffffffffffffffffffff168152602001828103825287818151815260200191508051906020019080838360005b8381101561076657808201518184015260208101905061074b565b50505050905090810190601f1680156107935780820380516001836020036101000a031916815260200191505b509650505050505050600060405180830381600087803b1580156107b657600080fd5b505af11580156107ca573d6000803e3d6000fd5b5050505050505050505050565b6000806000809054906101000a900473ffffffffffffffffffffffffffffffffffffffff1673ffffffffffffffffffffffffffffffffffffffff1663267b6922846040518263ffffffff1660e01b81526004018082815260200191505060a06040518083038186803b15801561084c57600080fd5b505afa158015610860573d6000803e3d6000fd5b505050506040513d60a081101561087657600080fd5b8101908080519060200190929190805190602001909291908051906020019092919080519060200190929190805190602001909291905050505050509150508091505091905056fea265627a7a72315820e5e3977211ee2171834969d713bee4f396c7276d0adc8c62dc2ec8595cf7e9a964736f6c63430005100032",
  "source": "pragma solidity ^0.5.0;\n\nimport \"@ensdomains/ens/contracts/HashRegistrar.sol\";\nimport \"@ensdomains/ethregistrar/contracts/BaseRegistrar.sol\";\n\ncontract SubdomainMigrationRegistrar {\n\n    bytes32 constant public TLD_NODE = 0x93cdeb708b7545dc668eb9280176169d1c33cfd8ed6f04690a0bcc88a93fc4ae;\n\n    HashRegistrar public hashRegistrar;\n    BaseRegistrar public ethRegistrar;\n\n    address public previousRegistrar;\n    address payable public newRegistrar;\n\n    modifier onlyPreviousRegistrar {\n        require(msg.sender == previousRegistrar);\n        _;\n    }\n\n    constructor(\n        address _previousRegistrar,\n        address payable _newRegistrar,\n        HashRegistrar _hashRegistrar,\n        BaseRegistrar _ethRegistrar\n    ) public {\n        previousRegistrar = _previousRegistrar;\n        newRegistrar = _newRegistrar;\n        hashRegistrar = _hashRegistrar;\n        ethRegistrar = _ethRegistrar;\n    }\n\n    function () external payable { }\n\n    function configureDomainFor(string memory name, uint price, uint referralFeePPM, address payable _owner, address _transfer) public onlyPreviousRegistrar {\n        bytes32 label = keccak256(bytes(name));\n\n        uint256 value = deed(label).value();\n\n        hashRegistrar.transferRegistrars(label);\n\n        ethRegistrar.approve(newRegistrar, uint256(label));\n\n        _owner.transfer(value);\n\n        SubdomainMigrationRegistrar(newRegistrar).configureDomainFor(\n            name,\n            price,\n            referralFeePPM,\n            _owner,\n            _transfer\n        );\n    }\n\n    function deed(bytes32 label) internal view returns (Deed) {\n        (, address deedAddress,,,) = hashRegistrar.entries(label);\n        return Deed(deedAddress);\n    }\n}\n",
  "sourcePath": "/home/user/Dropbox/projects/subdomain-registrar/contracts/SubdomainMigrationRegistrar.sol",
  "compiler": {
    "name": "solc",
    "version": "0.5.16+commit.9c3226ce.Emscripten.clang"
  },
  "schemaVersion": "3.0.22",
  "updatedAt": "2020-02-11T22:30:19.756Z",
  "devdoc": {
    "methods": {}
  },
  "userdoc": {
    "methods": {}
  }
}