{
  "contractName": "DummyDeed",
  "abi": [
    {
      "constant": true,
      "inputs": [],
      "name": "previousOwner",
      "outputs": [
        {
          "name": "",
          "type": "address"
        }
      ],
      "payable": false,
      "stateMutability": "view",
      "type": "function"
    },
    {
      "constant": true,
      "inputs": [],
      "name": "owner",
      "outputs": [
        {
          "name": "",
          "type": "address"
        }
      ],
      "payable": false,
      "stateMutability": "view",
      "type": "function"
    },
    {
      "inputs": [
        {
          "name": "_owner",
          "type": "address"
        }
      ],
      "payable": false,
      "stateMutability": "nonpayable",
      "type": "constructor"
    },
    {
      "constant": false,
      "inputs": [
        {
          "name": "newOwner",
          "type": "address"
        }
      ],
      "name": "transfer",
      "outputs": [],
      "payable": false,
      "stateMutability": "nonpayable",
      "type": "function"
    }
  ],
  "bytecode": "0x6060604052341561000f57600080fd5b6040516020806102d683398101604052808051906020019091905050806000806101000a81548173ffffffffffffffffffffffffffffffffffffffff021916908373ffffffffffffffffffffffffffffffffffffffff1602179055505061025b8061007b6000396000f300606060405260043610610057576000357c0100000000000000000000000000000000000000000000000000000000900463ffffffff1680631a6952301461005c578063674f220f146100955780638da5cb5b146100ea575b600080fd5b341561006757600080fd5b610093600480803573ffffffffffffffffffffffffffffffffffffffff1690602001909190505061013f565b005b34156100a057600080fd5b6100a86101e4565b604051808273ffffffffffffffffffffffffffffffffffffffff1673ffffffffffffffffffffffffffffffffffffffff16815260200191505060405180910390f35b34156100f557600080fd5b6100fd61020a565b604051808273ffffffffffffffffffffffffffffffffffffffff1673ffffffffffffffffffffffffffffffffffffffff16815260200191505060405180910390f35b6000809054906101000a900473ffffffffffffffffffffffffffffffffffffffff16600160006101000a81548173ffffffffffffffffffffffffffffffffffffffff021916908373ffffffffffffffffffffffffffffffffffffffff160217905550806000806101000a81548173ffffffffffffffffffffffffffffffffffffffff021916908373ffffffffffffffffffffffffffffffffffffffff16021790555050565b600160009054906101000a900473ffffffffffffffffffffffffffffffffffffffff1681565b6000809054906101000a900473ffffffffffffffffffffffffffffffffffffffff16815600a165627a7a723058206bfc4d6e85f57c9f9d75732d81f4aae1016756a429909ea01705c5850172bad90029",
  "source": "pragma solidity ^0.4.17;\n\nimport \"./ENS.sol\";\nimport \"./HashRegistrarSimplified.sol\";\n\ncontract DummyDeed is Deed {\n    function DummyDeed(address _owner) public {\n        owner = _owner;\n    }\n\n    function transfer(address newOwner) public {\n        previousOwner = owner;\n        owner = newOwner;\n    }\n}\n\n\ncontract DummyHashRegistrar is HashRegistrarSimplified {\n    ENS public ens;\n\n    mapping (bytes32 => DummyDeed) deeds;\n\n    function DummyHashRegistrar(ENS _ens) public {\n        ens = _ens;\n        // namehash('eth')\n        rootNode = 0x93cdeb708b7545dc668eb9280176169d1c33cfd8ed6f04690a0bcc88a93fc4ae;\n    }\n\n    function entries(bytes32 label) public view returns (Mode, address, uint, uint, uint) {\n        return (HashRegistrarSimplified.Mode.Owned, address(deeds[label]), 0, 0, 0);\n    }\n\n    function transfer(bytes32 label, address newOwner) public {\n        require(deeds[label].owner() == msg.sender);\n        deeds[label].transfer(newOwner);\n\n        if (ens.owner(rootNode) == address(this)) {\n            ens.setSubnodeOwner(rootNode, label, newOwner);\n        }\n    }\n\n    function setSubnodeOwner(bytes32 label, address owner) public {\n        ens.setSubnodeOwner(rootNode, label, owner);\n        deeds[label] = new DummyDeed(owner);\n    }\n}\n",
  "sourcePath": "/Users/nickjohnson/drive/projects/subdomain-registrar/contracts/DummyHashRegistrar.sol",
  "compiler": {
    "name": "solc",
    "version": "0.4.19+commit.c4cbbb05.Emscripten.clang"
  },
  "schemaVersion": "2.0.0",
  "updatedAt": "2018-03-07T14:33:10.263Z"
}