{
  "contractName": "DummyHashRegistrar",
  "abi": [
    {
      "constant": true,
      "inputs": [
        {
          "name": "label",
          "type": "bytes32"
        }
      ],
      "name": "entries",
      "outputs": [
        {
          "name": "",
          "type": "uint8"
        },
        {
          "name": "",
          "type": "address"
        },
        {
          "name": "",
          "type": "uint256"
        },
        {
          "name": "",
          "type": "uint256"
        },
        {
          "name": "",
          "type": "uint256"
        }
      ],
      "payable": false,
      "stateMutability": "view",
      "type": "function"
    },
    {
      "constant": true,
      "inputs": [],
      "name": "ens",
      "outputs": [
        {
          "name": "",
          "type": "address"
        }
      ],
      "payable": false,
      "stateMutability": "view",
      "type": "function"
    },
    {
      "constant": false,
      "inputs": [
        {
          "name": "label",
          "type": "bytes32"
        },
        {
          "name": "newOwner",
          "type": "address"
        }
      ],
      "name": "transfer",
      "outputs": [],
      "payable": false,
      "stateMutability": "nonpayable",
      "type": "function"
    },
    {
      "constant": false,
      "inputs": [
        {
          "name": "label",
          "type": "bytes32"
        },
        {
          "name": "owner",
          "type": "address"
        }
      ],
      "name": "setSubnodeOwner",
      "outputs": [],
      "payable": false,
      "stateMutability": "nonpayable",
      "type": "function"
    },
    {
      "constant": true,
      "inputs": [],
      "name": "rootNode",
      "outputs": [
        {
          "name": "",
          "type": "bytes32"
        }
      ],
      "payable": false,
      "stateMutability": "view",
      "type": "function"
    },
    {
      "inputs": [
        {
          "name": "_ens",
          "type": "address"
        }
      ],
      "payable": false,
      "stateMutability": "nonpayable",
      "type": "constructor"
    }
  ],
  "bytecode": "0x6060604052341561000f57600080fd5b604051602080610bd38339810160405280805190602001909190505080600160006101000a81548173ffffffffffffffffffffffffffffffffffffffff021916908373ffffffffffffffffffffffffffffffffffffffff1602179055507f93cdeb708b7545dc668eb9280176169d1c33cfd8ed6f04690a0bcc88a93fc4ae6001026000816000191690555050610b29806100aa6000396000f30060606040526004361061006d576000357c0100000000000000000000000000000000000000000000000000000000900463ffffffff168063267b6922146100725780633f15457f1461010357806379ce9fac146101585780638cb8ecec1461019e578063faff50a8146101e4575b600080fd5b341561007d57600080fd5b610097600480803560001916906020019091905050610215565b604051808660058111156100a757fe5b60ff1681526020018573ffffffffffffffffffffffffffffffffffffffff1673ffffffffffffffffffffffffffffffffffffffff1681526020018481526020018381526020018281526020019550505050505060405180910390f35b341561010e57600080fd5b61011661027b565b604051808273ffffffffffffffffffffffffffffffffffffffff1673ffffffffffffffffffffffffffffffffffffffff16815260200191505060405180910390f35b341561016357600080fd5b61019c60048080356000191690602001909190803573ffffffffffffffffffffffffffffffffffffffff169060200190919050506102a1565b005b34156101a957600080fd5b6101e260048080356000191690602001909190803573ffffffffffffffffffffffffffffffffffffffff1690602001909190505061066d565b005b34156101ef57600080fd5b6101f7610811565b60405180826000191660001916815260200191505060405180910390f35b60008060008060006002806000886000191660001916815260200190815260200160002060009054906101000a900473ffffffffffffffffffffffffffffffffffffffff1660008060008292508191508090509450945094509450945091939590929450565b600160009054906101000a900473ffffffffffffffffffffffffffffffffffffffff1681565b3373ffffffffffffffffffffffffffffffffffffffff1660026000846000191660001916815260200190815260200160002060009054906101000a900473ffffffffffffffffffffffffffffffffffffffff1673ffffffffffffffffffffffffffffffffffffffff16638da5cb5b6000604051602001526040518163ffffffff167c0100000000000000000000000000000000000000000000000000000000028152600401602060405180830381600087803b151561035f57600080fd5b6102c65a03f1151561037057600080fd5b5050506040518051905073ffffffffffffffffffffffffffffffffffffffff1614151561039c57600080fd5b60026000836000191660001916815260200190815260200160002060009054906101000a900473ffffffffffffffffffffffffffffffffffffffff1673ffffffffffffffffffffffffffffffffffffffff16631a695230826040518263ffffffff167c0100000000000000000000000000000000000000000000000000000000028152600401808273ffffffffffffffffffffffffffffffffffffffff1673ffffffffffffffffffffffffffffffffffffffff168152602001915050600060405180830381600087803b151561047157600080fd5b6102c65a03f1151561048257600080fd5b5050503073ffffffffffffffffffffffffffffffffffffffff16600160009054906101000a900473ffffffffffffffffffffffffffffffffffffffff1673ffffffffffffffffffffffffffffffffffffffff166302571be36000546000604051602001526040518263ffffffff167c0100000000000000000000000000000000000000000000000000000000028152600401808260001916600019168152602001915050602060405180830381600087803b151561053f57600080fd5b6102c65a03f1151561055057600080fd5b5050506040518051905073ffffffffffffffffffffffffffffffffffffffff16141561066957600160009054906101000a900473ffffffffffffffffffffffffffffffffffffffff1673ffffffffffffffffffffffffffffffffffffffff166306ab592360005484846040518463ffffffff167c010000000000000000000000000000000000000000000000000000000002815260040180846000191660001916815260200183600019166000191681526020018273ffffffffffffffffffffffffffffffffffffffff1673ffffffffffffffffffffffffffffffffffffffff1681526020019350505050600060405180830381600087803b151561065457600080fd5b6102c65a03f1151561066557600080fd5b5050505b5050565b600160009054906101000a900473ffffffffffffffffffffffffffffffffffffffff1673ffffffffffffffffffffffffffffffffffffffff166306ab592360005484846040518463ffffffff167c010000000000000000000000000000000000000000000000000000000002815260040180846000191660001916815260200183600019166000191681526020018273ffffffffffffffffffffffffffffffffffffffff1673ffffffffffffffffffffffffffffffffffffffff1681526020019350505050600060405180830381600087803b151561074b57600080fd5b6102c65a03f1151561075c57600080fd5b50505080610768610817565b808273ffffffffffffffffffffffffffffffffffffffff1673ffffffffffffffffffffffffffffffffffffffff168152602001915050604051809103906000f08015156107b457600080fd5b60026000846000191660001916815260200190815260200160002060006101000a81548173ffffffffffffffffffffffffffffffffffffffff021916908373ffffffffffffffffffffffffffffffffffffffff1602179055505050565b60005481565b6040516102d6806108288339019056006060604052341561000f57600080fd5b6040516020806102d683398101604052808051906020019091905050806000806101000a81548173ffffffffffffffffffffffffffffffffffffffff021916908373ffffffffffffffffffffffffffffffffffffffff1602179055505061025b8061007b6000396000f300606060405260043610610057576000357c0100000000000000000000000000000000000000000000000000000000900463ffffffff1680631a6952301461005c578063674f220f146100955780638da5cb5b146100ea575b600080fd5b341561006757600080fd5b610093600480803573ffffffffffffffffffffffffffffffffffffffff1690602001909190505061013f565b005b34156100a057600080fd5b6100a86101e4565b604051808273ffffffffffffffffffffffffffffffffffffffff1673ffffffffffffffffffffffffffffffffffffffff16815260200191505060405180910390f35b34156100f557600080fd5b6100fd61020a565b604051808273ffffffffffffffffffffffffffffffffffffffff1673ffffffffffffffffffffffffffffffffffffffff16815260200191505060405180910390f35b6000809054906101000a900473ffffffffffffffffffffffffffffffffffffffff16600160006101000a81548173ffffffffffffffffffffffffffffffffffffffff021916908373ffffffffffffffffffffffffffffffffffffffff160217905550806000806101000a81548173ffffffffffffffffffffffffffffffffffffffff021916908373ffffffffffffffffffffffffffffffffffffffff16021790555050565b600160009054906101000a900473ffffffffffffffffffffffffffffffffffffffff1681565b6000809054906101000a900473ffffffffffffffffffffffffffffffffffffffff16815600a165627a7a72305820399827e611e3ee1cd4109e74b1c215d4a5cb8f7cde83ef570f6365a88353a2e10029a165627a7a72305820676d462fb15561b44df7f8290a0702989af0d3ac7a274f6646bcd635757ee6d30029",
  "source": "pragma solidity ^0.4.17;\n\nimport \"./ENS.sol\";\nimport \"./HashRegistrarSimplified.sol\";\n\ncontract DummyDeed is Deed {\n    function DummyDeed(address _owner) public {\n        owner = _owner;\n    }\n\n    function transfer(address newOwner) public {\n        previousOwner = owner;\n        owner = newOwner;\n    }\n}\n\n\ncontract DummyHashRegistrar is HashRegistrarSimplified {\n    ENS public ens;\n\n    mapping (bytes32 => DummyDeed) deeds;\n\n    function DummyHashRegistrar(ENS _ens) public {\n        ens = _ens;\n        // namehash('eth')\n        rootNode = 0x93cdeb708b7545dc668eb9280176169d1c33cfd8ed6f04690a0bcc88a93fc4ae;\n    }\n\n    function entries(bytes32 label) public view returns (Mode, address, uint, uint, uint) {\n        return (HashRegistrarSimplified.Mode.Owned, address(deeds[label]), 0, 0, 0);\n    }\n\n    function transfer(bytes32 label, address newOwner) public {\n        require(deeds[label].owner() == msg.sender);\n        deeds[label].transfer(newOwner);\n\n        if (ens.owner(rootNode) == address(this)) {\n            ens.setSubnodeOwner(rootNode, label, newOwner);\n        }\n    }\n\n    function setSubnodeOwner(bytes32 label, address owner) public {\n        ens.setSubnodeOwner(rootNode, label, owner);\n        deeds[label] = new DummyDeed(owner);\n    }\n}\n",
  "sourcePath": "/Users/nickjohnson/drive/projects/subdomain-registrar/contracts/DummyHashRegistrar.sol",
  "compiler": {
    "name": "solc",
    "version": "0.4.18+commit.9cf6e910.Emscripten.clang"
  },
  "schemaVersion": "1.0.1",
  "updatedAt": "2018-03-13T14:23:40.141Z"
}