{
  "contractName": "TestResolver",
  "abi": [
    {
      "inputs": [
        {
          "name": "_ens",
          "type": "address"
        }
      ],
      "payable": false,
      "stateMutability": "nonpayable",
      "type": "constructor"
    },
    {
      "constant": true,
      "inputs": [
        {
          "name": "interfaceID",
          "type": "bytes4"
        }
      ],
      "name": "supportsInterface",
      "outputs": [
        {
          "name": "",
          "type": "bool"
        }
      ],
      "payable": false,
      "stateMutability": "pure",
      "type": "function"
    },
    {
      "constant": true,
      "inputs": [
        {
          "name": "node",
          "type": "bytes32"
        }
      ],
      "name": "addr",
      "outputs": [
        {
          "name": "",
          "type": "address"
        }
      ],
      "payable": false,
      "stateMutability": "view",
      "type": "function"
    },
    {
      "constant": false,
      "inputs": [
        {
          "name": "node",
          "type": "bytes32"
        },
        {
          "name": "addr",
          "type": "address"
        }
      ],
      "name": "setAddr",
      "outputs": [],
      "payable": false,
      "stateMutability": "nonpayable",
      "type": "function"
    }
  ],
  "bytecode": "0x6060604052341561000f57600080fd5b60405160208061043b83398101604052808051906020019091905050806000806101000a81548173ffffffffffffffffffffffffffffffffffffffff021916908373ffffffffffffffffffffffffffffffffffffffff160217905550506103c08061007b6000396000f300606060405260043610610057576000357c0100000000000000000000000000000000000000000000000000000000900463ffffffff16806301ffc9a71461005c5780633b3b57de146100b6578063d5fa2b001461011d575b600080fd5b341561006757600080fd5b61009c60048080357bffffffffffffffffffffffffffffffffffffffffffffffffffffffff1916906020019091905050610163565b604051808215151515815260200191505060405180910390f35b34156100c157600080fd5b6100db6004808035600019169060200190919050506101fd565b604051808273ffffffffffffffffffffffffffffffffffffffff1673ffffffffffffffffffffffffffffffffffffffff16815260200191505060405180910390f35b341561012857600080fd5b61016160048080356000191690602001909190803573ffffffffffffffffffffffffffffffffffffffff16906020019091905050610242565b005b60006301ffc9a77c010000000000000000000000000000000000000000000000000000000002827bffffffffffffffffffffffffffffffffffffffffffffffffffffffff191614806101f65750633b3b57de7c010000000000000000000000000000000000000000000000000000000002827bffffffffffffffffffffffffffffffffffffffffffffffffffffffff1916145b9050919050565b600060016000836000191660001916815260200190815260200160002060009054906101000a900473ffffffffffffffffffffffffffffffffffffffff169050919050565b3373ffffffffffffffffffffffffffffffffffffffff166000809054906101000a900473ffffffffffffffffffffffffffffffffffffffff1673ffffffffffffffffffffffffffffffffffffffff166302571be3846000604051602001526040518263ffffffff167c0100000000000000000000000000000000000000000000000000000000028152600401808260001916600019168152602001915050602060405180830381600087803b15156102f957600080fd5b6102c65a03f1151561030a57600080fd5b5050506040518051905073ffffffffffffffffffffffffffffffffffffffff1614151561033657600080fd5b8060016000846000191660001916815260200190815260200160002060006101000a81548173ffffffffffffffffffffffffffffffffffffffff021916908373ffffffffffffffffffffffffffffffffffffffff16021790555050505600a165627a7a7230582071538872ffdcb7586971dc576c86d1138f65a7c7e8aac6c02a5c9af1f37e84e70029",
  "source": "pragma solidity ^0.4.17;\n\nimport \"./ENS.sol\";\nimport \"./Resolver.sol\";\n\n/**\n * @dev A test resolver implementation\n */\ncontract TestResolver is Resolver {\n    ENS ens;\n\n    mapping (bytes32 => address) addresses;\n\n    function TestResolver(ENS _ens) public {\n        ens = _ens;\n    }\n\n    function supportsInterface(bytes4 interfaceID) public pure returns (bool) {\n        return interfaceID == 0x01ffc9a7 || interfaceID == 0x3b3b57de;\n    }\n\n    function addr(bytes32 node) public view returns (address) {\n        return addresses[node];\n    }\n\n    function setAddr(bytes32 node, address addr) public {\n        require(ens.owner(node) == msg.sender);\n        addresses[node] = addr;\n    }\n}\n",
  "sourcePath": "/Users/nickjohnson/drive/projects/subdomain-registrar/contracts/TestResolver.sol",
  "compiler": {
    "name": "solc",
    "version": "0.4.19+commit.c4cbbb05.Emscripten.clang"
  },
  "schemaVersion": "2.0.0",
  "updatedAt": "2018-03-08T10:35:02.839Z"
}